:020000040800F2
:10000000606B022079020008D5330008A91D0008A2
:10001000F91D000877080008A34D00080000000043
:10002000000000000000000000000000C101000806
:10003000311500080000000015020008D53900083D
:10004000930200089302000893020008930200083C
:10005000930200089302000893020008930200082C
:10006000930200089302000893020008930200081C
:10007000930200089302000893020008930200080C
:1000800093020008930200089302000893020008FC
:1000900089090008930200089302000893020008EF
:1000A00093020008930200089302000893020008DC
:1000B00093020008AD3B0008930200089302000879
:1000C00093020008930200089302000893020008BC
:1000D00093020008E9440008930200085947000809
:1000E000930200089302000893020008930200089C
:1000F000930200089302000893020008930200088C
:10010000930200089302000893020008930200087B
:10011000930200089302000893020008930200086B
:10012000930200088511000893020008930200085A
:10013000930200089302000893020008930200084B
:10014000C90A0008930200089302000893020008FD
:1001500093020008B511000893020008254A000820
:10016000930200089302000893020008930200081B
:10017000930200089302000893020008930200080B
:100180009302000893020008930200084943000804
:1001900093020008930200089302000893020008EB
:1001A000000000000000000093020008DFF80CD0FF
:1001B00000F024FB00480047C9A00008606B022043
:1001C0002A4B19680868B0E8F04F80F30988BFF33C
:1001D0006F8F4FF0000080F311887047000000001F
:1001E00006480068006880F3088862B661B6BFF30D
:1001F0004F8FBFF36F8F00DF00BF00BF08ED00E03F
:10020000DFF80C00016841F470010160704700BF25
:1002100088ED00E0EFF30980BFF36F8F134B1A688E
:100220001EF0100F08BF20ED108A20E9F04F10607B
:1002300008B44FF0500080F31188BFF34F8FBFF325
:100240006F8F0EF09DFA4FF0000080F3118808BC0C
:1002500019680868B0E8F04F1EF0100F08BFB0EC46
:10026000108A80F30988BFF36F8F70474809002018
:10027000EFF30580704700000648804706480047B6
:10028000FEE7FEE7FEE7FEE7FEE7FEE7FEE7FEE746
:10029000FEE7FEE7213A0008AD01000840EA01034D
:1002A0009B0703D009E008C9121F08C0042AFAD22C
:1002B00003E011F8013B00F8013B521EF9D27047F0
:1002C000D2B201E000F8012B491EFBD27047002298
:1002D000F6E710B513460A4604461946FFF7F0FF45
:1002E000204610BD421C10F8011B0029FBD1801ACA
:1002F00070472DE9FE4F804681EA0300C00F0C468F
:10030000009021F0004123F00045B8EB0200A94124
:1003100005D24046214690461C460B46024623F035
:100320000040104347D0270DC7F30A00C3F30A511A
:100330000290401A019040286BDAC3F3130040F496
:10034000801B0098924620B10023D2EB030A63EB96
:100350000B0B01985946C0F14002504600F088F955
:1003600006460D4650465946019A00F0A0F910EB9A
:1003700008006141002487EA115284EAE7731A43B6
:1003800040D0009A62B3019A012A4FEA075215DC65
:10039000001B61EB02014FF0004202EA0752CDE977
:1003A0000042001C41F5801132462B4600F0D7F97F
:1003B00003B0BDE8F08F40462146F9E7001B61EB32
:1003C0000201001C41F5801300185B412018A2F5C2
:1003D000001747EB030140EAD570B6196D4111E0F3
:1003E0006D084FEA360645EAC0754FEA0752001B12
:1003F00061EB0201001C41F5801149084FEA300011
:100400000019514132462B4603B0BDE8F04F00F0D1
:1004100097B90098012240000023D0EB020263EB61
:10042000E073009821464FEAE074B8EB000061EBFE
:100430000401E9E783F000435BE781F0004158E7FE
:100440002DE9FE4F81EA030404F0004421F000414D
:1004500000944FF0000B23F0004350EA01045ED0FB
:1004600052EA03045BD0C3F30A54C1F30A552C4487
:10047000A4F2F3340194A0FB0254C1F3130141F43C
:100480008011C3F3130343F4801301FB024400FB08
:10049000034E840A970A44EA815447EA8357A4FB2F
:1004A000076802958D0A05FB07854FEA932C04FB2C
:1004B0000C542705029D4FEA065847EA1637B5EB5C
:1004C00008056EEB070C870E920E47EA811742EA89
:1004D0008312A7FB0201B6EB0B0164EB00042B0DAA
:1004E00043EA0C335E1844EB1C50DA465146E7FBF6
:1004F0000201C5F313044FEA0B3343EA14534FEAE6
:100500000432019C43EA0603A4F10C040294009C0B
:10051000CDE900B400F023F903B0BDE8F08F00206E
:100520000146F9E70EB5C10F80EAE0700844CA073A
:10053000002140F233438DE80E000A460B4600F0DE
:100540000EF903B000BD70B5C1F30A5201F00045C9
:100550000024C1F3130140F2FF3341F480119A42A9
:1005600001DA002070BD40F233439A42A2F23342D6
:1005700003DC524200F08BF800E090402C43F1D0B5
:10058000404270BD00F0004230F000400AD0C10D82
:1005900001F56071C0F3160042EA0151C20840073C
:1005A00011437047002001467047000030B5041E1B
:1005B00071F1000404DB4FF00044404264EB0101A0
:1005C000141E73F1000405DB1C464FF00043524239
:1005D00063EB04038B4208BF824230BD30B5041E7A
:1005E00071F1000404DB4FF00044404264EB010170
:1005F000141E73F1000405DB1C464FF00043524209
:1006000063EB0403994208BF904230BD01F0004300
:1006100030B421F0004150EA010206D00A0DA2F5E3
:100620006072C1F31301002A02DC30BC0020704765
:10063000440F44EAC104C100E01830BC00EBC250D2
:1006400000F047B830B50B460146002020220124B7
:1006500009E021FA02F59D4205D303FA02F5491B90
:1006600004FA02F52844151EA2F10102F1DC30BDA6
:10067000202A04DB203A00FA02F100207047914062
:10068000C2F1200320FA03F3194390407047202A57
:1006900004DB203A21FA02F00021704721FA02F32C
:1006A000D040C2F120029140084319467047202AE9
:1006B00006DBCB17203A41FA02F043EAE07306E08A
:1006C00041FA02F3D040C2F120029140084319469A
:1006D00070470029A8BF7047401C490008BF20F0A0
:1006E0000100704710B4B0FA80FC00FA0CF050EA38
:1006F000010404BF10BC704749B1CCF1200421FAB9
:1007000004F411FA0CF118BF012121430843A3EBB3
:100710000C01CB1D4FEA00614FEA102042BF0020C0
:1007200010BC704700EBC35010440029A4BF10BC9C
:100730007047401C490008BF20F0010010BC704702
:1007400010B5141E73F1000408DA401C41F10001D9
:1007500092185B411A4301D120F0010010BD2DE930
:10076000F04D92469B4611B1B1FA81F202E0B0FA27
:1007700080F220329046FFF77BFF04460F4640EAA6
:100780000A0041EA0B0153465A46084313D011466A
:1007900053EA010019D0C8F140025046FFF777FF35
:1007A00005460E46504659464246FFF761FF08434C
:1007B00005D0012004E020463946BDE8F08D002038
:1007C000054346EAE0762C4337430A986305E40A7A
:1007D000A0EB08000022FD0A44EA47540A3002D583
:1007E00000200146E9E7010510196941DDE90845E6
:1007F00000196941BDE8F04DA2E70000064C074D25
:1008000006E0E06840F0010394E8070098471034E0
:10081000AC42F6D3FFF7CEFC68FF000888FF000863
:1008200070B58C1810F8015B15F0070301D110F8B2
:10083000013B2A1106D110F8012B03E010F8016BDF
:1008400001F8016B5B1EF9D12B0705D40023521E62
:100850000DD401F8013BFAE710F8013BCB1A921CCA
:1008600003E013F8015B01F8015B521EF9D5A142C8
:10087000D8D3002070BD00BFFEE700002DE9F04195
:100880008AB004460D4617461E46DDF84080012119
:10089000082002F029FE0121480602F035FE012160
:1008A000480602F041FE00214FF0007002F03CFECD
:1008B0000320089002208DF8240000208DF82600E7
:1008C00001208DF8270003208DF8250008A92C4869
:1008D00001F06CF809220021294801F0AFF8092243
:1008E0000121274801F0AAF801208DF81B00002003
:1008F0008DF81C008DF81A008DF81F008DF81D0072
:100900008DF81E008DF81640ADF814808DF8187023
:100910008DF819608DF8175005A91A4800F05DFA96
:100920000020ADF80C008DF80F0001208DF81000AC
:100930000020ADF80400ADF80600ADF80800ADF8F1
:100940000A008DF80E0001208DF8110001A800F0BA
:1009500027F9012202210B4800F036FA14208DF805
:10096000000004208DF8010000208DF80200012015
:100970008DF80300684602F02FFD0AB0BDE8F08153
:10098000000C02400064004010B50221084800F04D
:100990008BF960B10221064800F0AEF8054A00214B
:1009A000034800F0A4FA0349014802F087FE10BD95
:1009B00000640040C40900202DE9F0418AB00446DB
:1009C0000D4617461E46DDF840800121022002F048
:1009D0008BFD0121880602F097FD0121880602F0B7
:1009E000A3FD00214FF0806002F09EFD4FF44050C7
:1009F000089002208DF8240000208DF826008DF844
:100A0000270003208DF8250008A92D4800F0CEFF0F
:100A100009220C212A4801F011F809220D21284849
:100A200001F00CF801208DF81B0000208DF81C004F
:100A30008DF81A008DF81F008DF81D008DF81E002E
:100A40008DF81640ADF814808DF818708DF8196087
:100A50008DF8175005A91B4800F0BFF90020ADF82C
:100A60000C008DF80F0001208DF810000020ADF86B
:100A70000400ADF80600ADF80800ADF80A000E203D
:100A80008DF80E0001208DF8110001A800F088F803
:100A9000012202210B4800F097F940208DF8000058
:100AA00004208DF8010000208DF8020001208DF84F
:100AB0000300684602F090FC0AB0BDE8F081000037
:100AC000000402400068004010B50221084800F010
:100AD000EBF860B10221064800F00EF8054A00214B
:100AE000034800F004FA0349014802F0E7FD10BD95
:100AF00000680040D8090020B1F5007F3AD00FDC33
:100B0000202928D006DC01291CD004291DD0082961
:100B100040D11DE0402921D0B1F5807F3AD126E0B7
:100B2000B1F5004F31D006DCB1F5806F25D0B1F5BD
:100B3000006F2FD124E0B1F5803F12D0B1F5003F16
:100B400028D111E0154A826025E00822C26022E027
:100B50001022C2601FE0082202611CE01022026124
:100B600019E00822426016E01022426013E00422DD
:100B7000426010E0042242600DE0042242600AE07C
:100B8000002282610422426005E000228261042288
:100B9000426000E000BF00BF70470000010101009B
:100BA00010B50021837A012202FA03F13D4A12684E
:100BB00042F001023B4B1A603A4A1C3212688A43E7
:100BC000384B1C331A60027BCAB9364A0C321268A1
:100BD0008A43344B0C331A604288C38842EA034389
:100BE000304A4032847A42F834300288838842EABC
:100BF00003432C4A4032847A02EBC4025360027BE6
:100C0000012A19D1274A0C3212680A43254B0C33AA
:100C10001A604288038842EA0343224A4032847AB7
:100C200042F83430C288838842EA03431D4A403286
:100C3000847A02EBC4025360C27A3AB9194A121D8F
:100C400012688A43174B1B1D1A6006E0154A121DD5
:100C500012680A43134B1B1D1A60028932B9114AEC
:100C6000143212688A430F4B14331A600289012A26
:100C700006D10C4A143212680A430A4B14331A6024
:100C8000427B012A06D1074A1C3212680A43054BEF
:100C90001C331A60034A126822F00102014B1A60E9
:100CA00010BD00000066004070B504460D460026E9
:100CB00060692840002871D0B5F5807F5CD010DCD9
:100CC000082D35D006DC012D20D0022D24D0042D96
:100CD00072D127E0102D31D0202D35D0402D6BD191
:100CE00038E0B5F5004F60D009DCB5F5007F49D09C
:100CF000B5F5806F4CD0B5F5006F5DD14FE0B5F51F
:100D0000803F2DD0B5F5003F56D12FE0A0682D498A
:100D100000F02EFA064651E0E068032100F028FAC0
:100D200006464BE0E068082100F022FA064645E05E
:100D3000E068102100F01CFA06463FE0206903211C
:100D400000F016FA064639E02069082100F010FA92
:100D5000064633E02069102100F00AFA06462DE02D
:100D60006068082100F004FA064627E06068102158
:100D700000F0FEF9064621E0A069012100F0F8F933
:100D800006461BE0A069022100F0F2F9064615E0D4
:100D9000A069042100F0ECF906460FE00FE0A0691D
:100DA000702100F0E5F9064608E06068042100F0D3
:100DB000DFF9064602E0FFE7002600BF00E000265C
:100DC000304670BD010101001AB143690B43436114
:100DD00002E043698B434361704730B5024600200F
:100DE0000023146824F002041460146844F0010421
:100DF000146000E05B1C546804F001041CB94FF659
:100E0000FF74A342F6D1546804F001040CB9002029
:100E10006CE08C79012C04D1146844F080041460D7
:100E200003E0146824F080041460CC79012C04D110
:100E3000146844F04004146003E0146824F0400493
:100E400014600C7A012C04D1146844F0200414605E
:100E500003E0146824F0200414604C7A012C04D1BF
:100E6000146844F01004146003E0146824F01004C3
:100E700014608C7A012C04D1146844F008041460C6
:100E800003E0146824F008041460CC7A012C04D127
:100E9000146844F00404146003E0146824F00404AB
:100EA00014608C78A407CD7844EA05640D7944EA8F
:100EB00005444D7944EA05540D886D1E2C43D461D8
:100EC000146824F001041460002300E05B1C5468E3
:100ED00004F001041CB14FF6FF74A342F6D154682C
:100EE00004F001040CB1002000E0012030BD10B579
:100EF00000F5D87303EB01131B6803F004031372AE
:100F0000137A53B900F5D87303EB01131B6840F251
:100F1000FF7404EA5353136009E000F5D87303EB40
:100F200001131B686FF0604404EAD303536000F5BB
:100F3000D87303EB01131B6803F00203537200F52F
:100F4000D87303EB01135B6803F00F03937200F592
:100F5000D87303EB01135B681B0AD37400F5D873D5
:100F600003EB01139B68D37200F5D87303EB0113F5
:100F70009B681C0A147300F5D87303EB01139B687C
:100F80001C0C547300F5D87303EB01139B681B0E04
:100F9000937300F5D87303EB0113DB68D37300F58B
:100FA000D87303EB0113DB681C0A147400F5D873C3
:100FB00003EB0113DB681C0C547400F5D87303EBCE
:100FC0000113DB681B0E937421B9C36843F020033F
:100FD000C36003E0036943F02003036110BD10B553
:100FE00002460020936803F08063B3F1806F00D164
:100FF00010E0936803F00063B3F1006F01D10120AA
:1010000008E0936803F08053B3F1805F01D10220C0
:1010100000E00420042874D002F5C07303EB001331
:101020001B6803F0010402F5C07303EB00131C609E
:101030000B7A7BB94B7A0C8843EA445302F5C074AF
:1010400004EB00142468234302F5C07404EB00147D
:10105000236010E00B7A4C6843EAC4034C7A2343C4
:1010600002F5C07404EB00142468234302F5C07435
:1010700004EB001423608B7A03F00F038B7202F5EC
:10108000C07303EB00135B6823F00F0402F5C07319
:1010900003EB00135C6002F5C07303EB00135B68A5
:1010A0008C7A234302F5C07404EB001463608B7BDD
:1010B0001C064B7B44EA03440B7B44EA0323CC7AB3
:1010C000234302F5C07404EB0014A3608B7C1C0660
:1010D0004B7C44EA03440B7C44EA0323CC7B23434C
:1010E00002F5C07404EB0014E36002F5C07303EB77
:1010F00000131B6843F0010402F5C07303EB0013F7
:101100001C6010BD4A7822B1012A0FD0022A27D1D3
:1011100019E090ED030AB8EEC00ADFED120A80EE86
:10112000201ABDEEC10A80ED040A19E090ED030A11
:10113000B8EEC00ADFED0C0A80EE201ABDEEC10A3F
:1011400080ED040A0CE090ED030AB8EEC00ADFED72
:10115000070A80EE201ABDEEC10A80ED040A00BF26
:1011600000BF7047610BB641832DD843CDCC4C44B2
:101170000246002002EA01030BB1012000E000203A
:101180007047000010B50849084800F031F948B12F
:101190000549064800F034F8012240F22441044891
:1011A00003F06BFD10BD0000000800102864024031
:1011B0000014014010B50E490E4800F019F9B0B105
:1011C0000D490C4800F036F988B10021094800F0BB
:1011D00031F80749074800F013F81121054800F0DD
:1011E000A5F9012240F22661044803F046FD10BD36
:1011F00000002020A0640240008020200014014054
:101200000246094B9A4201D2084801E006481038CC
:1012100001F000531BB1064B0B40C36002E0044BCE
:101220000B40836070470000106402400060024081
:101230007D0F7D0F21B1026842F00102026003E0E0
:10124000026822F00102026070470000016821F08C
:10125000010101600021016041608160C1600161A4
:10126000212141614A49884204D13D21484A103A2E
:1012700091608CE046491831884205D14FF4746181
:10128000434A103A916082E041493031884205D1A9
:101290004FF474113E4A103A916078E03C4948316D
:1012A000884205D14FF07461394A103A91606EE07E
:1012B00037496031884204D13649354A103AD16005
:1012C00065E033497831884204D13349304A103AD5
:1012D000D1605CE02E499031884204D12F492C4ADC
:1012E000103AD16053E02A49A831884205D14FF025
:1012F0003D51274A103AD16049E02949884204D13A
:101300003D21274A083A116041E0254918318842B9
:1013100005D14FF47461224A083A116037E0204940
:101320003031884205D14FF474111D4A083A1160DA
:101330002DE01B494831884205D14FF07461184AAD
:10134000083A116023E016496031884204D11149FE
:10135000134A121F11601AE011497831884204D1F2
:101360000D490F4A121F116011E00D49903188425A
:1013700004D10A490A4A121F116008E00849A8313D
:10138000884204D14FF03D51054A121F1160704749
:10139000106002403D000020400F002000003D2072
:1013A0001064024021B1026842F48022026003E02E
:1013B000026822F480220260704722B1036843F47D
:1013C0000023036003E0036823F40023036001614A
:1013D00070470146486880B27047014600200A689D
:1013E00002F400220AB1012000E000207047000052
:1013F00030B503460A46002000240B4DAB4201D213
:101400000A4901E00849103902F000550DB14C6855
:1014100000E00C68064D2C4004EA02050DB10120E5
:1014200000E0002030BD0000106402400060024077
:101430007D0F7D0F70B50246002000240025124E5E
:10144000B24201D2114B01E00F4B103B104E0E4047
:1014500036B11E2606EAD124166806EA040502E023
:10146000566906F0800501F000560EB15C6800E098
:101470001C68084E344004EA010616B10DB1012083
:1014800000E0002070BD00001064024000600240D7
:101490003C0F3C0F7D0F7D0F10B501F080034BB169
:1014A00022B1436943F08003436103E0436923F0C1
:1014B0008003436180290BD02AB1036801F01E0428
:1014C0002343036004E0036801F01E04A3430360A8
:1014D00010BD000010B500220268134B1A40CC6802
:1014E0000B6823434C6923438C692343CC69234312
:1014F0000C6A23434C6A23438C6A23434C6B23437B
:101500008C6B23431A430260426922F00702D1E93F
:101510000B3423431A4342610B6943604B68836079
:101520008B68C36010BD00003F801CF041607047B5
:1015300070470000002123498279002A3AD00A46E8
:10154000126803689A430B461A600A1D1268036802
:101550009A430B1D1A60027911440A6803681A4302
:101560000A60184A0832126803689A43154B083318
:101570001A601A1D126803689A43124B0C331A60E2
:101580004279102A0ED11A1F126803681A430D4BB4
:1015900008331A601A1D126803681A43094B0C338A
:1015A0001A600DE00749427911440A6803681A433A
:1015B0000A6005E0027911440A6803689A430A60E8
:1015C00070470000003C01402DE9F0472DED068BEF
:1015D0008146B0EE408AF0EE608AB0EE419AF0EEBD
:1015E000619AB0EE42AA00244FF0010AB9EE040A53
:1015F000B4EEC08AF1EE10FA02D8B9EE040A0BE09C
:10160000B1EE040AB4EEC08AF1EE10FA02DBB1EEDC
:10161000040A01E0B0EE480AB0EE408A9FED530A9A
:10162000B4EEC09AF1EE10FA02D89FED500A0BE02A
:101630009FED4F0AB4EEC09AF1EE10FA02DB9FED77
:101640004C0A01E0B0EE490AB0EE409A9FED490A1B
:10165000F4EEC08AF1EE10FA02D89FED460A0BE0D4
:101660009FED450AF4EEC08AF1EE10FA02DB9FED21
:10167000420A01E0B0EE680AF0EE408A9FED3F0AB0
:1016800028EE000ABDEEC00A10EE100A05B29FED6A
:101690003B0A29EE000ADFED3A0A80EE201ABDEE81
:1016A000C10A10EE100A06B29FED360A28EE800A33
:1016B000DFED330A80EE201ABDEEC10A10EE104AAB
:1016C0009FED310A29EE800ABDEEC00A10EE100A25
:1016D00007B29FED2D0A2AEE000ABDEEC00A10EEF9
:1016E000100A0FFA80F8FE2028490870EE20487092
:1016F00049EA0A108870CD70280A08714E71300AC4
:101700008871CC71200A0872200C4872200E8872F1
:10171000CF72380A087381F80D804FEA1820887359
:101720000F211A4805F038FF1849C8730F211748D0
:1017300005F032FF001215490874002014490860B2
:101740000CE0124812490968405C1249104A1268BC
:1017500088540F480068401C0D4908600C48006818
:101760001028EEDDBDEC068BBDE8F087000034C22A
:10177000000034420000BFC20000BF4200008043AE
:10178000280FC940000000470000A0440840002086
:101790007C080020A85900201CB50121084601F052
:1017A000A3FE0121022001F09FFE0121042001F08F
:1017B0009BFE0121102001F097FE0121202001F065
:1017C00093FE0121802001F08FFE0121080201F02B
:1017D0008BFE0121402001F087FE4FF4FC70009049
:1017E00001208DF804008DF8070000208DF8060018
:1017F0008DF805006946664800F0D8F8F82164487D
:1018000000F041F94FF48071614800F03AF920206E
:10181000009001208DF804008DF8070000208DF85D
:1018200006008DF8050069465A4800F0BFF82021EF
:10183000584800F028F9202000906946564800F0EA
:10184000B5F84FF4806000906946544800F0AEF857
:101850004FF48061514800F016F96020009069460D
:101860004F4800F0A3F860214D4800F00CF9022029
:1018700000906946494800F099F80221474800F075
:1018800002F9022000906946434800F08FF80120D9
:101890008DF804008DF8070000208DF806008DF803
:1018A00005000220009069463C4800F07FF82020A7
:1018B000009069463A4800F079F840200090694667
:1018C000374800F073F8202000906946314800F056
:1018D0006DF80220009069462F4800F067F801205B
:1018E000009069462D4800F061F801212B4800F076
:1018F000CAF84020009001208DF8040000208DF8E7
:1019000007008DF806008DF805006946234800F0B1
:101910004DF80420009000208DF804008DF8070099
:101920006946204800F042F800208DF804000120AC
:101930008DF8070000208DF806008DF805004FF4A3
:10194000806000906946154800F030F84FF4007050
:1019500000906946144800F029F800208DF8040032
:1019600002208DF8070000208DF806008DF8050094
:101970002020009069460C4800F018F840200090A4
:101980006946094800F012F800F010FA1CBD00008A
:10199000001802400000024000080240001402400B
:1019A000001002400004024000200240F0B50A4648
:1019B00000210023002400BF3DE0012505FA01F3CA
:1019C000156805EA03049C4234D105684F000326DC
:1019D000BE40B543056015794E00B54006683543F5
:1019E00005601579012D02D01579022D16D1856873
:1019F0004F000326BE40B543856055794E00B54083
:101A0000866835438560456801268E40B54345604C
:101A1000456896798E40B6B235434560C5684F003B
:101A20000326BE40B543C560D5794E00B540C668B3
:101A30003543C560491C1029BFD3F0BDF0B5002364
:101A400000244D07ED0E02FA05F3CE1000F120053B
:101A500055F826504E07F70E0F26BE40B543CF105F
:101A600000F1200646F82750CE1000F1200555F869
:101A7000265045EA0304CE1000F1200545F8264023
:101A8000F0BD41837047018370470AB1018300E0D4
:101A90004183704730B5C1B0002422E104EB04104B
:101AA000B14A02EB001000F110014FF48072684659
:101AB000FEF7F4FB04EB0410AB4901EB001595E8CD
:101AC0000F0003F070F900287ED004EB0410A64943
:101AD00001EB0010C07B401EC5B204EB041001EB0B
:101AE0000010807B012802D0022840D140E004EBA6
:101AF00004129D4B03EB02119C4A02EB8510FFF789
:101B000001FB9A4800EB8510018804EB0410964A0B
:101B100002EB00108161954800EB8510B0F90400DC
:101B200000EE100AB8EEC00A04EB0410114601EBF7
:101B3000001080ED0C0A8D4800EB851090ED040A32
:101B4000B8EEC00A04EB041001EB001080ED090AA6
:101B5000864800EB8510B0F9060000EE100AB8EEDA
:101B6000C00A04EB041001EB001080ED0E0A42E005
:101B700004EB04127C4B03EB02117D4A02EB85104F
:101B8000FFF7C0FA7A4800EB8510018804EB0410D7
:101B9000754A02EB00108161754800EB8510B0F9C1
:101BA000040000EE100AB8EEC00A04EB041011465F
:101BB00001EB001080ED0C0A6D4800EB851090EDF4
:101BC000040AB8EEC00A00E089E004EB041001EB5F
:101BD000001080ED090A664800EB8510B0F9060098
:101BE00000EE100AB8EEC00A04EB041001EB00107E
:101BF00080ED0E0A00BF00BF04EB04105A4901EB50
:101C000000104078032869D107F082F804EB041033
:101C1000554901EB0010007C02282FD003285CD12D
:101C200054480088032828D1524890ED060A04EB56
:101C3000041001EB001080ED070A4E4890ED070AF2
:101C4000B8EEC00A04EB041001EB001080ED0C0AA2
:101C500004EB041001EB001090ED090A04EB0410F2
:101C600001EB001080ED0A0A424890ED080A04EBEF
:101C7000041001EB001080ED090A2EE03D480088B9
:101C8000022829D13B4890ED060A04EB041036499E
:101C900001EB001080ED070A364890ED070AB8EE18
:101CA000C00A04EB041001EB001080ED0C0A04EBF9
:101CB000041001EB001090ED090A04EB041001EB95
:101CC000001080ED0A0A2B4890ED080A04EB04107E
:101CD00001EB001080ED090A00BF00BF00BF601CCF
:101CE000C4B2102CFFF6DAAE002439E022480078A6
:101CF00005281BD020480078062817D000201B4953
:101D000001EB84118860194800EB841001881748A2
:101D100000EB8410806801EB4030144901EB841122
:101D2000898A401A114901EB8411C8600F4800EB01
:101D30008410008A01B2114820F814100B4800EBFF
:101D4000841081880D48103820F81410074800EBE3
:101D50008410C1880948183020F81410601CC4B2DF
:101D6000032CC3DD41B030BD401D0020EC0E00202F
:101D7000AC100020903F0020EE0000209C120020BC
:101D800001480068704700006000002005480068B6
:101D9000401C0449086008460068401C08B900203F
:101DA000086070476000002000BFFEE70EB501210B
:101DB000880301F0C9FB0221012001F02DFD08205C
:101DC0008DF8080002208DF809008DF80A00012026
:101DD0008DF80B0002A801F0FFFA0420009000200B
:101DE0008DF8040008208DF8050001208DF806000C
:101DF0006846FFF79FFB0EBD00BFFEE70FB470B54E
:101E00000446109DDDED0F2AB0EE622ADDED0E2AAC
:101E1000F0EE621ADDED0D2AB0EE621ADDED0C2A4D
:101E2000F0EE620ADDED0B2AB0EE620A294604F1FB
:101E3000400001F017FBDDED0A2AB0EE622ADDED6D
:101E4000092AF0EE621ADDED082AB0EE621ADDED25
:101E5000072AF0EE620ADDED062AB0EE620A294694
:101E600004F1900001F0FEFA70BC5DF814FB000074
:101E700070B5044604EB0410284901EB0010B0F8DB
:101E8000E8004FF4FA6191FBF0F004EB0411234AEF
:101E900002EB0111B1F9E610484300F5FA7504EBC5
:101EA0000410114601EB001090F8E400012806D060
:101EB00002280FD0032818D004282CD120E004EBEE
:101EC0000411164A02EB0111D1F8E000294602F094
:101ED00028F920E004EB0411104A02EB0111D1F8BB
:101EE000E000294602F01FF915E004EB04110B4A4B
:101EF00002EB0111D1F8E000294602F016F90AE0E0
:101F000004EB0411054A02EB0111D1F8E000294667
:101F100002F00DF900BF00BF70BD0000401D0020A1
:101F20000021B048A0F8F4104FF47A71A0F83415ED
:101F30001E21A0F854178221A0F864180021A0F8EF
:101F400074194FF6A261A0F8841A0021A0F8B21CFF
:101F50000921A0F8B41DA0F8C41E5A21A0F8D41F6E
:101F60003E2100F57F60A0F8F41000219D48A0F804
:101F7000FE104FF4FA61A0F83E150021A0F85E179C
:101F8000A0F86E18A0F87E196FF0C701A0F88E1A9D
:101F90004FF6BA21A0F8AE1C0921A0F8BE1DA0F88A
:101FA000CE1E0021A0F8DE1F00F57F60A0F8FE1015
:101FB0008C48A0F800114FF4FA61A0F840155021A8
:101FC000A0F860170A21A0F870180021A0F8801965
:101FD0006FF0F901A0F8901A4FF6AE41A0F8B01CCE
:101FE0000021A0F8C01DA0F8D01EA0F8E01F00F549
:101FF0007F60A0F800117B48A0F8021140F6C411E0
:10200000A0F842150021A0F862176FF05901A0F85E
:1020100072180021A0F882196FF04F01A0F8921AEF
:102020000021A0F8B21CA0F8C21D6F48008801B2C0
:102030006C48A0F8D21E0021A0F8E21F00F57F60D6
:10204000A0F802116748A0F804114FF47A71A0F8C3
:1020500044150021A0F864176FF05901A0F8741816
:102060000021A0F884196FF06301A0F8941A0021F0
:10207000A0F8B41CA0F8C41DC821A0F8D41E0021EB
:10208000A0F8E41F00F57F60A0F804115548A0F8FF
:1020900006114FF4FA71A0F846150021A0F8661752
:1020A0006921A0F876180021A0F88619A0F8961AE0
:1020B0004FF67651A0F8B61C0021A0F8C61DA0F876
:1020C000D61EA0F8E61F00F57F60A0F8061145486F
:1020D000A0F8F610A0F836156FF04501A0F85617D5
:1020E0000021A0F86618A0F876194FF60C61A0F848
:1020F000861A0021A0F8A61CA0F8B61DA0F8C61EDE
:10210000A0F8D61F00F57F60A0F8F6103548A0F8BB
:10211000F8104FF49651A0F838150021A0F8581780
:102120006FF05901A0F868180021A0F878195A2119
:10213000A0F8881A6FF0C701A0F8A81C0021A0F829
:10214000B81D4FF2A061A0F8C81EB421A0F8D81F96
:10215000002100F57F60A0F8F8102248A0F8FA10DE
:102160004FF49651A0F83A150021A0F85A176FF0D5
:102170005901A0F86A180021A0F87A195A21A0F88C
:102180008A1A6FF0C701A0F8AA1C0021A0F8BA1D96
:102190004FF2A061A0F8CA1EB421A0F8DA1F0021F6
:1021A00000F57F60A0F8FA100E48A0F8081141F27F
:1021B0007071A0F848150021A0F86817A0F87818E9
:1021C000A0F88819A0F8981AA0F8B81CA0F8C81DA3
:1021D000A0F8D81EA0F8E81F00F57F60A0F808114D
:1021E00070470000401D0020FC04002000B5C5B071
:1021F00000208DF8000001208DF8010001218DF8EC
:102200000E108DF80F100021ADF8141000208DF87D
:1022100008008DF80910ADF80A109DF8001001EBC8
:102220000111C34A02EB01104FF488726946FEF7B0
:1022300035F84FF488716846FEF749F804208DF8A8
:10224000000001208DF8010001218DF80E100521FC
:102250008DF80F1000218DF8111040F2DC51ADF80F
:10226000141000208DF8080000218DF809104FF699
:102270004451ADF80A109DF8001001EB0111AC4A71
:1022800002EB01104FF488726946FEF707F84FF42D
:1022900088716846FEF71BF806208DF800000420C0
:1022A0008DF801000007389003218DF8E4104FF4F9
:1022B0008771ADF8E8109DF8001001EB01119C4A00
:1022C00002EB01104FF488726946FDF7E7FF4FF407
:1022D00088716846FDF7FBFF07208DF80000042099
:1022E0008DF801009348389003218DF8E4104FF4E5
:1022F0008771ADF8E8109DF8001001EB01118C4AD0
:1023000002EB01104FF488726946FDF7C7FF4FF4E6
:1023100088716846FDF7DBFF08208DF80000042077
:102320008DF801008348389002218DF8E4100021D7
:10233000ADF8E8109DF8001001EB01117C4A02EBAA
:1023400001104FF488726946FDF7A8FF4FF48871B9
:102350006846FDF7BCFF09208DF8000002208DF8CB
:10236000010002218DF80E1001218DF80F108DF85B
:1023700012104FF47A71ADF8141000208DF8080097
:1023800000218DF809104FF62421ADF80A109DF8B0
:10239000001001EB0111664A02EB01104FF4887244
:1023A0006946FDF77BFF4FF488716846FDF78FFFA4
:1023B0000B208DF8000002208DF8010002218DF81D
:1023C0000E1003218DF80F1001218DF8121000213D
:1023D000ADF8141000208DF808008DF80910ADF844
:1023E0000A109DF8001001EB0111514A02EB011097
:1023F0004FF488726946FDF751FF4FF488716846C3
:10240000FDF765FF0C208DF8000003208DF801001A
:1024100003218DF810100021ADF8141000208DF864
:1024200008008DF809107821ADF80A109DF8001009
:1024300001EB01113E4A02EB01104FF4887269462C
:10244000FDF72CFF4FF488716846FDF740FF0D2023
:102450008DF8000003208DF8010002218DF8101086
:102460000021ADF8141000208DF808008DF8091037
:102470004FF61841ADF80A109DF8001001EB01115C
:102480002B4A02EB01104FF488726946FDF706FFF4
:102490004FF488716846FDF71AFF0E208DF8000092
:1024A00004208DF801002348389004218DF8E410B1
:1024B0004FF48771ADF8E8109DF8001001EB0111A1
:1024C0001B4A02EB01104FF488726946FDF7E6FEE5
:1024D0004FF488716846FDF7FAFE0F208DF8000072
:1024E00004208DF801000007389001218DF8E410D8
:1024F0004FF48771ADF8E8109DF8001001EB011161
:102500000B4A02EB01104FF488726946FDF7C6FED4
:102510004FF488716846FDF7DAFE012000F0B6FB43
:10252000FFF7FEFC0A21092000F006F845B000BDC7
:10253000401D002000080040F0B5C1B005460E4621
:102540000027681CC4B239E005EB05121D4B03EBF4
:10255000021104EB041203EB02104FF48872FDF732
:102560009DFE04EB0410174A02EB001000F110016D
:102570004FF480726846FDF791FE04EB0410114998
:1025800001EB001C9CE80F0002F00DFCA0B1781CD0
:10259000C7B204EB04100B4901EB0010047005EB0B
:1025A000051001EB0010C07B3844C1B204EB0410ED
:1025B000044A02EB0010C173601CC4B2B442C3DD14
:1025C00041B0F0BD401D00202DE9F04103460F4D04
:1025D0001E46084615E000EB0017DFF834C00CEB90
:1025E000071707F5857737447C1BB4F800C000EB6C
:1025F0000017DFF81C8008EB0717A7F80AC1471C73
:10260000F8B29042E7DDBDE8F0810000364C0020D2
:10261000401D002000EB0011334A02EB0111897BC1
:10262000012902D0022922D110E000EB00112E4A2C
:1026300002EB0111C97B2D4A02EB410200EB0011B4
:10264000294B03EB0111C96B116010E000EB001185
:10265000254A02EB0111C97B254A02EB410200EB3E
:102660000011214B03EB0111C96B116000BF00BFCA
:1026700000EB00111C4A02EB01114978032932D109
:1026800000EB001102EB0111097C022919D003298A
:1026900028D100EB001102EB0111164AC96B116041
:1026A00000EB0011104A02EB0111134AC96A1160D4
:1026B00000EB00110C4A02EB0111104A496A11604B
:1026C00010E000EB0011084A02EB01110C4AC96B43
:1026D000116000EB0011044A02EB0111094AC96ABA
:1026E000116000BF00BF7047401D0020B02E0020C9
:1026F000C22E00200805002010050020180500202B
:102700000C0500201405002030B5C1B000243AE0CB
:1027100004EB04101E4A02EB001000F110014FF40C
:1027200080726846FDF7BAFD04EB0410184901EB0E
:10273000001595E80F0002F036FB10B304EB4400DF
:10274000144901EB8000007A68B104EB440001EB0E
:10275000800090ED010A04EB04100D4901EB00101C
:1027600080ED320A0DE004EB44000A4901EB8000E1
:1027700090ED000A04EB0410054901EB001080ED18
:10278000320A601CC4B2102CC2DB41B030BD000064
:10279000401D0020384C002030B5C1B09FED1A0A12
:1027A0001A4880ED1C0A9FED180A80ED1F0A0024CC
:1027B00025E004EB0410164A02EB001000F11001B2
:1027C0004FF480726846FDF769FD04EB0410104970
:1027D00001EB001595E80F0002F0E5FA68B104EB93
:1027E00004100B4901EB001090ED320A04EB440099
:1027F000064901EB800080ED000A601CC4B2102C79
:10280000D7DB012041B030BD00007A44384C0020B5
:10281000401D002030B5C1B000241EE004EB0410C0
:10282000104A02EB001000F110014FF4807268466C
:10283000FDF734FD04EB04100A4901EB001595E89F
:102840000F0002F0B0FA30B1002004EB4401064A58
:1028500002EB81010872601CC4B2102CDEDB41B0B7
:1028600030BD0000401D0020384C002070B52DED1B
:102870000A8BC0B001250C2441E104EB0410A449EB
:1028800001EB0010007803287BDD04EB04100A46FE
:1028900002EB001000F110014FF480726846FDF762
:1028A000FDFC04EB04109A4901EB001696E80F00BA
:1028B00002F079FA002864D004EB0410944901EB8B
:1028C0000010407A00287DD104EB041001EB0010C9
:1028D0004078012806D004EB041001EB001040788A
:1028E000022811D104EB0410894901EB0010B0F962
:1028F0000A0000EE100AB8EEC00A04EB041001EB67
:10290000001080ED0D0A4AE004EB0410804901EB51
:1029100000104078A0BB04EB041001EB00108069AC
:10292000A0F28F60002811DD04EB041001EB001011
:10293000B0F90A00404200EE100AB8EEC00A04EBFB
:10294000041001EB001080ED0D0A28E004EB0410E8
:102950006F4901EB00108069A0F28F60002811D54B
:1029600004EB041001EB0010B0F90A0000EE100AAD
:10297000B8EEC00A04EB041001EB001080ED0D0A64
:102980000DE0BAE004EB0410614901EB001090ED9A
:10299000090A04EB041001EB001080ED3C0A04EB83
:1029A00004105B4901EB0010407803280AD004EBC7
:1029B00004100A4602EB001090ED0D0A10EE101AFA
:1029C000084600E08BE0FDF7DDFD41EC1B0BB0EEAF
:1029D0004B0AF0EE6B0A02F00DFAB0EE40AAF0EEF0
:1029E00060AA9FED4C0B53EC102B51EC1A0BFDF72A
:1029F00027FD41EC180B04EB0410454A02EB0010D4
:102A000090ED0C0A10EE101A0846FDF7BBFD41ECE4
:102A10001C0BB0EE4C0AF0EE6C0A02F0EBF9B0EED3
:102A200040AAF0EE60AA04EB0410394A02EB001051
:102A300090ED0D0A10EE101A0846FDF7A3FD41ECCB
:102A40001C0BB0EE4C0AF0EE6C0A02F0D3F9B0EEBB
:102A500040BAF0EE60BA53EC1A2B51EC1B0BFDF7A9
:102A6000E9FC41EC190B53EC182BFDF7B7FD36D2FE
:102A700004EB0410264901EB00108089401C81B250
:102A800004EB0410224A02EB0010818104EB0410D5
:102A9000114601EB00108089C82820DD012104EBDC
:102AA000041002EB0010417204EB0410114601EB1C
:102AB000001090ED090A04EB041001EB001080ED0A
:102AC0003C0A9FED160A04EB041001EB001080EDA8
:102AD0000D0A002104EB041002EB00108181204656
:102AE00000F01EF82046FFF795FD04EB041008499E
:102AF00001EB0010407A00B90025601CC4B2102C14
:102B0000FFF6BBAE284640B0BDEC0A8B70BD00009E
:102B1000401D0020333333333333E33F00000000E4
:102B200010B5044604EB0410574901EB0010807CFB
:102B300002284ED104EB0411534A02EB011191ED2E
:102B40000B1AF0EE410A04EB041102EB011191EDB6
:102B5000091AB0EE410A04EB041102EB011101F174
:102B6000400008F0F9F804EB0410474901EB0010AD
:102B700090ED1D0A04EB041001EB001080ED0D0A2E
:102B800004EB0411404A02EB011191ED0D1AF0EE35
:102B9000410A04EB041102EB011191ED0C1AB0EEA5
:102BA000410A04EB041102EB011101F1900008F05D
:102BB000D3F804EB0410344901EB001090ED310A16
:102BC000BDEEC00A04EB041001EB001080ED0F0A0B
:102BD00029E004EB04102C4901EB0010807C012853
:102BE00021D104EB0411284A02EB011191ED0D1AD9
:102BF000F0EE410A04EB041102EB011191ED0C1A05
:102C0000B0EE410A04EB041102EB011101F1900056
:102C100008F0A2F8BDEEC00A04EB04101A4901EB5B
:102C2000001080ED0F0A04EB0410174901EB0010AF
:102C30004078032827D104EB0411134A02EB011159
:102C400091ED0B1AF0EE410A04EB041102EB0111B5
:102C500091ED091AB0EE410A04EB041102EB0111E7
:102C600001F1400008F078F804EB0410064901EB8C
:102C7000001090ED1D0ABDEEC00A04EB041001EB3C
:102C8000001080ED0F0A10BD401D002010B594B05B
:102C9000044600208DF824009FEDFE0A8DED0F0AFA
:102CA0009FEDFD0A8DED100A9FEDFC0A8DED110AD6
:102CB0009FEDFB0A8DED120A9FEDF90A8DED130AC7
:102CC0009FEDF40A8DED0A0A9FEDF30A8DED0B0AD4
:102CD0009FEDF20A8DED0C0A9FEDF10A8DED0D0AC4
:102CE0009FEDEF0A8DED0E0A20220CA9684608948C
:102CF000FDF7D4FAEB4809A90EC9FFF77FF80420C5
:102D00008DF82400B3EE0E0A8DED0F0A9FEDE60A52
:102D10008DED100A9FEDE50A8DED110A9FEDE40A95
:102D20008DED120A9FEDE30A8DED130AB3EE040A4E
:102D30008DED0A0A9FEDE00A8DED0B0A9FEDDB0A8F
:102D40008DED0C0A9FEDDD0A8DED0D0A9FEDD90A80
:102D50008DED0E0A20220CA968460894FDF79EFA14
:102D6000D74809A90EC9FFF749F806208DF82400B5
:102D70009FEDCE0A8DED0F0A9FEDCC0A8DED100A66
:102D80009FEDCA0A8DED110A9FEDC80A8DED120A5A
:102D90009FEDC60A8DED130A9FEDBE0A8DED0A0A5E
:102DA0009FEDBD0A8DED0B0A9FEDBC0A8DED0C0A5F
:102DB0009FEDC40A8DED0D0A9FEDC20A8DED0E0A3E
:102DC00020220CA968460894FDF768FABE4809A9B4
:102DD0000EC9FFF713F807208DF824009FEDB30A02
:102DE0008DED0F0A9FEDB10A8DED100A9FEDAF0A30
:102DF0008DED110A9FEDAD0A8DED120A9FEDAB0A24
:102E00008DED130A9FEDA30A8DED0A0A9FEDA20A2C
:102E10008DED0B0A9FEDA10A8DED0C0A9FEDA00A26
:102E20008DED0D0A9FED9E0A8DED0E0A20220CA954
:102E300068460894FDF732FAA44809A90EC9FEF7BE
:102E4000DDFF08208DF824009FED980A8DED0F0A14
:102E50009FED960A8DED100A9FED940A8DED110AF3
:102E60009FED920A8DED120A9FED900A8DED130AE7
:102E70009FED880A8DED0A0A9FED870A8DED0B0AFA
:102E80009FED860A8DED0C0A9FED850A8DED0D0AEA
:102E90009FED830A8DED0E0A20220CA96846089446
:102EA000FDF7FCF98A4809A90EC9FEF7A7FF09201A
:102EB0008DF82400B3EE040A8DED0F0A9FED770A1A
:102EC0008DED100A9FED830A8DED110A9FED7D0AAD
:102ED0008DED120A9FED770A8DED130AB3EE040A09
:102EE0008DED0A0A9FED6C0A8DED0B0A9FED790AB4
:102EF0008DED0C0A9FED780A8DED0D0A9FED6D0AA0
:102F00008DED0E0A20220CA968460894FDF7C6F93B
:102F1000724809A90EC9FEF771FF0B208DF8240035
:102F20009FED6F0A8DED0F0A9FED600A8DED100A7F
:102F30009FED5E0A8DED110A9FED6A0A8DED120A72
:102F40009FED5C0A8DED130AB3EE040A8DED0A0ABB
:102F50009FED510A8DED0B0A9FED540A8DED0C0A81
:102F60009FED610A8DED0D0A9FED600A8DED0E0A51
:102F700020220CA968460894FDF790F95C4809A93D
:102F80000EC9FEF73BFF0C208DF82400B7EE000AB7
:102F90008DED0F0A9FED450A8DED100AB2EE040A81
:102FA0008DED110AB2EE040A8DED120A9FED510A61
:102FB0008DED130A9FED380A8DED0A0A9FED3B0A4D
:102FC0008DED0B0A9FED350A8DED0C0A9FED4A0A37
:102FD0008DED0D0A9FED470A8DED0E0A20220CA9FA
:102FE00068460894FDF75AF9444809A90EC9FEF746
:102FF00005FF0D208DF824009FED280A8DED0F0AA6
:103000009FED2A0A8DED100A9FED3D0A8DED110A04
:103010009FED220A8DED120A9FED360A8DED130AFF
:10302000B7EE000A8DED0A0A9FED200A8DED0B0A1E
:103030009FED1E0A8DED0C0A9FED1B0A8DED0D0A0A
:103040009FED2C0A8DED0E0A20220CA968460894EB
:10305000FDF724F92B4809A90EC9FEF7CFFE0E2073
:103060008DF824009FED110A8DED0F0A9FED0F0AD8
:103070008DED100A9FED0D0A8DED110A9FED0B0AE3
:103080008DED120A9FED090A8DED130A9FED010ADD
:103090003AE00000000070420AD7233CCDCCCC3D82
:1030A0000060EA46401D0020CDCC4C3E00000000F0
:1030B0000080BB450000FA436F12833A0000FA45D6
:1030C0008021002000007A44A0230020B0240020AA
:1030D000C02500200AD7A33C00007A45D026002056
:1030E0000000B44200C0DA450000FA440080BB444E
:1030F000F02800209A99193FCDCC4C3D002A0020A1
:1031000000004842102B00208DED0A0A1FED1E0A18
:103110008DED0B0A1FED1F0A8DED0C0A1FED200A25
:103120008DED0D0A1FED220A8DED0E0A20220CA94D
:1031300068460894FDF7B2F8034809A90EC9FEF7DE
:103140005DFE14B010BD0000202C0020C2B007F0BE
:1031500013FD8349086001E14FF0FF3341AA4FF4AA
:10316000800100200CF090F90546012DF3D17D4837
:10317000007820B9FFF73AF801207A490870002456
:103180001AE004EB0410784A02EB001000F1100181
:103190004FF480726846FDF781F804EB0410724921
:1031A00001EB001696E80F0001F0FDFD10B9204676
:1031B000FEF75EFE601CC4B2102CE2DB419800F406
:1031C0008000002811D0694800780028FAD06848AB
:1031D000007858B9FFF74AFB6549087000230122BF
:1031E0005106644800680BF067FFABE002F0E4FCB6
:1031F0000C24A4E004EB04105B4901EB0010007800
:1032000003287CDD04EB04100A4602EB001000F1F9
:1032100010014FF480726846FDF740F804EB04108B
:10322000514901EB001696E80F0001F0BCFD0028A3
:1032300065D004EB04104C4901EB001040780328E2
:103240006ED0022104EB0410474A02EB0010817497
:1032500004EB0410114601EB0010407C70B34448AD
:10326000007858B3012104EB041002EB00108174C4
:1032700004EB0410114601EB001090ED0B0A04EB77
:10328000041001EB0010D0ED090A30EE600ADFED0A
:103290003A0AB4EEE00AF1EE10FA10DD04EB041085
:1032A00001EB0010B0F9140000EE100AB8EEC00AED
:1032B00004EB041001EB001080ED0D0A30E004EB8C
:1032C0000410294901EB001090ED0B0A04EB0410E7
:1032D00001EB0010D0ED090A30EE600ADFED260A9E
:1032E000B4EEE00AF1EE10FA13D204EB041001EB95
:1032F0000010B0F91400404200EE100A00E01CE09B
:10330000B8EEC00A04EB041001EB001080ED0D0ACA
:1033100006E0022104EB0410134A02EB0010817452
:103320002046FFF7FDFB2046FFF774F9002301223A
:10333000D105104800680BF0BFFE601CC4B20E2C13
:10334000FFF658AF00230122D1050C4800680BF0AE
:10335000B3FE00200AF0C4FE09490860FCE6000044
:1033600000050020EC040020401D0020EE0000209D
:10337000ED0400205C0000200000C8423000002066
:10338000E804002001B2084AB2F84A250A4413B200
:10339000054AA2F84A35B2F85A260A4413B2024A3C
:1033A000A2F85A3670470000401D002010B50446B0
:1033B000224602210148FEF768FB10BD00080240CA
:1033C00010B50446224601210148FEF75EFB10BD00
:1033D000000802407047000070B5002100230F2252
:1033E000C4781CB3174C246804F4E064C4F5E064AA
:1033F000C4F30721C1F10404E3B20A4144789C40BC
:10340000E1B28478144021430C07210E0E4C05785C
:103410006155047804F01F050124AC4005786D1156
:10342000AD0005F1E025C5F8004109E0047804F09D
:103430001F050124AC40054D0678761145F826405D
:1034400070BD00000CED00E000E400E080E100E071
:1034500002490143024A1160704700000000FA056A
:103460000CED00E070B52DED068B0446B0EE408A01
:10347000F0EE608AB0EE419AF0EE619AB0EE42AAA8
:103480000D46D5B9164860641648A064B0EE4A2AC5
:10349000F0EE691AB0EE491AF0EE680AB0EE480A8A
:1034A0002046616C8847B0EE491AF0EE680AB0EE2B
:1034B000480A2046A16C88470EE009486064B0EED7
:1034C0004A2AF0EE691AB0EE491AF0EE680AB0EE38
:1034D000480A2046616C8847BDEC068B70BD000031
:1034E00075AE000895AE000829B1064A126802437D
:1034F000044B1A6004E0034A12688243014B1A60CD
:10350000704700003038024029B1064A1268024371
:10351000044B1A6004E0034A12688243014B1A60AC
:10352000704700004038024029B1064A1268024341
:10353000044B1A6004E0034A12688243014B1A608C
:10354000704700002038024029B1064A1268024341
:10355000044B1A6004E0034A12688243014B1A606C
:10356000704700004438024029B1064A12680243FD
:10357000044B1A6004E0034A12688243014B1A604C
:103580007047000024380240F0B5002100220024DA
:10359000022500260223324F3F6807F00C0121B1BB
:1035A000042905D0082937D105E02E4F076036E001
:1035B0002D4F076033E02A4F3F1F3F68C7F3805607
:1035C000274F3F1F3F6807F03F036EB1264FB7FB01
:1035D000F3F7DFF88CC0ACF1040CDCF800C0CCF3DE
:1035E000881C07FB0CF40CE01E4FB7FBF3F7DFF869
:1035F00070C0ACF1040CDCF800C0CCF3881C07FBF5
:103600000CF4174F3F1F3F68C7F301477F1C7D0035
:10361000B4FBF5F7076002E0124F076000BF00BF80
:103620000F4F3F6807F0F0010909104F7A5C0768F7
:10363000D74047600A4F3F6807F4E051890A0B4FB3
:103640007A5C4768D7408760054F3F6807F4604160
:10365000490B064F7A5C4768D740C760F0BD000051
:10366000083802400024F400001BB700360900208F
:103670001CB501210420FFF737FF01208DF804005D
:103680000720009002208DF8050069460A48FEF7E1
:103690008DF900208DF804003020009002208DF874
:1036A000050069460448FEF781F90120FFF788FE0E
:1036B0000020FFF77BFE1CBD0008024070B50546E8
:1036C0000C464D48007808B907F006FA4B48854289
:1036D00068D12068A0F2012030B1012805D002286D
:1036E00004D0032832D102E000BF00BF00BF207821
:1036F000401E434908704348097800EB81108169F6
:1037000040483F4A127800EB82108069401C3D4AD5
:103710003B4B1B7802EB83129061322908D8394960
:10372000374A127801EB8210214605F0C1F807E014
:103730003449334A127801EB8210214604F034FAFE
:103740002F490978481C04F06FFA00E000BF00BF61
:103750002078401E2C4908702C48097800EB811015
:1037600081692A48284A127800EB82108069401C3F
:10377000264A254B1B7802EB83129061322908D828
:103780002249214A127801EB8210214605F090F877
:1037900031E01E491C4A127801EB8210214604F0E8
:1037A00003FA28E02078401E194908701948097862
:1037B00000EB811081691748154A127800EB8210DE
:1037C0008069401C134A124B1B7802EB83129061F4
:1037D000322908D80F490E4A127801EB821021468F
:1037E00005F066F807E00B49094A127801EB8210F0
:1037F000214604F0D9F970BD780000200064004033
:103800007A000020EC09002079000020EC0E002056
:103810007B000020AC10002030B500228B071C0F6D
:103820000F2303FA04F20B4B8C1053F8243093430C
:10383000084C8D1044F8253023468C1053F8243062
:103840008C07240F00FA04F42343024C8D1044F833
:10385000253030BD083801400CB5002001900090A3
:103860004148006840F480303F49086000BF3E484E
:10387000006800F4003000900198401C019000980E
:1038800018B90198B0F5A04FF1D13748006800F49D
:10389000003010B10120009001E00020009000985D
:1038A000012860D130484030006840F080502E49F7
:1038B000403108602D48006840F440402B490860C2
:1038C000294808300068284908310860084600681F
:1038D00040F4004008600846006840F4A0500860CA
:1038E0002348091F0860081F006840F08070091F06
:1038F000086000BF1C48006800F000700028F9D084
:103900001A48006840F480301849086000BF174822
:10391000406800F480300028F9D01448006840F472
:1039200000301249086000BF1048406800F40030C1
:103930000028F9D040F205700E4908600A480830A6
:10394000006820F003000849083108600846006854
:1039500040F00200086000BF03480830006800F033
:103960000C000828F8D10CBD00380240007000405F
:10397000062D4008003C0240012080F3138800BF60
:1039800000BFBFF34F8F0748006800F4E0600649AE
:103990000843001D03490860BFF34F8F00BF00BFFD
:1039A000FEE700000CED00E00000FA05042808D155
:1039B0004FF0E021096941F004014FF0E02211616C
:1039C00007E04FF0E021096921F004014FF0E02207
:1039D0001161704710B50BF093FC012801D00BF07A
:1039E00007F810BD10B504466FF00400FFF7DEFFC6
:1039F000E11704EB5171C1F3C701074A117010467A
:103A0000007800EB4001C1EBC0104FF6FF7101EAF6
:103A1000C0000249088010BD300900203209002092
:103A200010B51548006840F4700013490860134849
:103A3000006840F001001149086000200F4908317A
:103A400008600E4800680E4908400C4908600D489F
:103A5000091D0860081F006820F48020091F086005
:103A6000002006490C310860FFF7F6FE4FF00060B9
:103A700001498039086010BD88ED00E0003802403F
:103A8000FFFFF6FE103000241CB50548022100237C
:103A90008022CDE9001003A105480BF0DDFA1CBD22
:103AA0001400002073746172745F7461736B0000A2
:103AB000B1D0000830B58BB005460C460121084650
:103AC000FFF712FD01210846FFF71EFD01221146F6
:103AD0003548FDF7B3FF012200213348FDF7AEFF63
:103AE000012203213048FDF7A9FF012202212E48BF
:103AF000FDF7A4FF0F20099002208DF82800012077
:103B00008DF82B0000208DF82A0003208DF8290065
:103B100009A92548FDF74AFF0795A0B2ADF818009E
:103B20000020ADF82000ADF81A0006A94FF0804043
:103B300000F000FB6020ADF804000020ADF810009C
:103B40000120ADF806004FF47A70039001A9C00679
:103B500000F09CF901A94FF0804000F0DFF901A9C5
:103B60004FF0804000F03AFA01A94FF0804000F099
:103B70008FFA0821C80600F0C7F90821C80600F02E
:103B80001FFA0821C80600F079FA0821C80600F0DB
:103B9000BBFA0121880700F011F90121880700F024
:103BA0004EF90BB030BD00000000024010B50121FD
:103BB000054800F050F908B1FEF7E8F80121024885
:103BC00000F03AF910BD00000004004030B58BB0A1
:103BD00005460C4601210820FFF786FC0121042040
:103BE000FFF792FC02220F212F48FDF727FF022248
:103BF0000E212D48FDF722FF02220D212A48FDF754
:103C00001DFF02220C212848FDF718FF4FF47040D9
:103C1000099002208DF8280001208DF82B0000204B
:103C20008DF82A0003208DF8290009A91E48FDF708
:103C3000BDFE0795A0B2ADF818000020ADF8200039
:103C4000ADF81A0006A9194800F074FA6020ADF822
:103C500004000020ADF810000120ADF806004FF47C
:103C60007A70039001A9114800F012FA01A90F48D7
:103C700000F0B4F901A90D4800F050F908210B48F3
:103C800000F042FA0821094800F0F8F90821074835
:103C900000F096F90121054800F090F80121034851
:103CA00000F0CDF80BB030BD000C02400008004021
:103CB00030B58BB005460C4601210802FFF714FC15
:103CC00001218020FFF710FC01210820FFF71CFCD8
:103CD000022200213648FDF7B1FE02220A213548B2
:103CE000FDF7ACFE02220B213248FDF7A7FE0222AF
:103CF0000C213048FDF7A2FE0120099002208DF82A
:103D0000280001208DF82B0000208DF82A000320C8
:103D10008DF8290009A92648FDF748FE4FF4E05028
:103D2000099009A92348FDF741FE0795A0B2ADF817
:103D300018000020ADF82000ADF81A0006A91E48B2
:103D400000F0F8F96020ADF804000020ADF8100094
:103D50000120ADF806004FF47A70039001A91648CF
:103D600000F096F901A9144800F038F901A91248A9
:103D700000F0D4F801A9104800F088F808210E4896
:103D800000F0C2F908210C4800F078F908210A482F
:103D900000F016F90821084800F0B6F8012106489D
:103DA00000F00CF80121044800F049F80BB030BDD8
:103DB00000200240001C0240000C004021B102889B
:103DC00042F08002028004E002884FF67F731A40BE
:103DD000028070477FB505460C4601210220FFF79F
:103DE00093FB0295ADF804400020ADF80C00ADF84F
:103DF000060001A90F4800F09DF9012211460D4867
:103E000000F03AF801210B4800F016F81D208DF85B
:103E1000000000208DF801008DF8020001208DF8CF
:103E200003006846FFF7D8FA0121024800F007F8BE
:103E30007FBD000000040040CA430282704721B1E8
:103E4000028842F00102028004E002884FF6FE730D
:103E50001A400280704730B502460020002300243B
:103E6000158A05EA0103958905EA010413B10CB12D
:103E7000012000E0002030BD1AB183890B4383810B
:103E800002E083898B4383817047000070B5002472
:103E900000220023058C4FF6FE7635400584028C07
:103EA0008388048B4FF68F752C40B51E2C400D88EF
:103EB0002C43751E2A408D892A434D882A43104D74
:103EC000A84202D00F4DA84213D14FF6F7752A40F1
:103ED000CD892A434FF6FB752A408D882A434FF639
:103EE000FF652B404FF6FF552B400D8A2B434D8A23
:103EF0002B43838004838D684563028470BD00007A
:103F000000000140000401400A460021018B4FF6E9
:103F1000F7731940114301837047000070B5002406
:103F200000220023058C4FF6EF7635400584028C85
:103F30008388048B48F6FF752C404FF6FF452C40D4
:103F40000D884FF6FF7606EA05252C434FF6DF7500
:103F50002A408D8906EA05152A434D8806EA05158B
:103F60002A43154DA84202D0144DA8421DD14FF648
:103F70007F752A40CD894FF6FF7606EA05152A435C
:103F80004FF6BF752A408D8806EA05152A434FF67D
:103F9000FF352B404FF2FF752B400D8A06EA850551
:103FA0002B434D8A06EA85052B43838004838D6865
:103FB0008563028470BD00000000014000040140E0
:103FC0000A460021018B4FF2FF7319404FF6FF7331
:103FD00003EA0223194301837047000070B50024EF
:103FE00000220023058C4FF6FF6635400584028CC5
:103FF0008388848B4FF68F752C404FF6FC752C40D0
:104000000D882C434FF6FF552A408D894FF6FF76D9
:1040100006EA05252A434D8806EA05252A43154D5B
:10402000A84202D0144DA8421DD14FF2FF752A407C
:10403000CD894FF6FF7606EA05252A434FF6FF3570
:104040002A408D8806EA05252A434EF6FF752B4047
:104050004DF6FF752B400D8A06EA05152B434D8A58
:1040600006EA05152B43838084838D68C56302842B
:1040700070BD000000000140000401400A4600211C
:10408000818B4FF6F773194011438183704700000D
:1040900070B5002200230024058C4EF6FF763540D3
:1040A0000584038C8488828B48F6FF752A404FF67E
:1040B000FF452A400D884FF6FF7606EA05252A437C
:1040C0004DF6FF752B408D8906EA05352B434D884B
:1040D00006EA05352B430A4DA84202D0094DA842F5
:1040E00008D14BF6FF752C400D8A4FF6FF7606EA95
:1040F00085152C43848082838D680564038470BD9C
:1041000000000140000401400A460021818B4FF26B
:10411000FF7319404FF6FF7303EA022319438183AB
:1041200070474163704781637047C16370470164A2
:104130007047000000220288184B98420ED0184B9E
:1041400098420BD0B0F1804F08D0164B984205D062
:10415000154B984202D0154B984204D14FF68F73FD
:104160001A404B881A43124B984207D0114B984281
:1041700004D04FF6FF431A400B891A4302804B6864
:10418000C3620B880385054B984202D0044B9842CA
:1041900001D18B7A0386012383827047000001409E
:1041A000000401400004004000080040000C0040F2
:1041B000001000400014004000B587B001214020ED
:1041C000FFF792F901218807FFF79EF9012188077F
:1041D000FFF7AAF900214FF08040FFF7A5F9082268
:1041E00007212348FDF72AFC082211462048FDF745
:1041F00025FC4FF4C070059002208DF818000020B7
:104200008DF81A0001208DF81B0003208DF819008D
:1042100005A91748FDF7CAFB164800F07FFC4FF4CC
:10422000E13001900020ADF80800ADF80A00ADF8CB
:104230000C000C20ADF80E000020ADF8100001A914
:104240000C4800F03FFD01210A4800F051FC5220CB
:104250008DF8000005208DF8010000208DF8020087
:1042600001208DF803006846FFF7B6F807B000BDDF
:10427000001002400078004000B587B001211020F6
:10428000FFF732F90121C807FFF73EF90121C807FE
:10429000FFF74AF900214FF00040FFF745F90822E7
:1042A00000212748FDF7CAFB082201212448FDF719
:1042B000C5FB0320059002208DF8180000208DF822
:1042C0001A008DF81B0003208DF8190005A91C4861
:1042D000FDF76CFB1B4800F021FC4FF4E13001902E
:1042E0000020ADF80800ADF80A00ADF80C000C2075
:1042F000ADF80E000020ADF8100001A9114800F043
:10430000E1FC10210F4800F0DBFB012240F22441C8
:104310000C4800F0B2FC01210A4800F0E9FB5320F0
:104320008DF8000005208DF8010000208DF80200B6
:1043300001208DF803006846FFF74EF807B000BD76
:1043400000100240007C004010B51021084800F029
:104350005DFC60B140F22441054800F064FC30B1DE
:10436000034800F019FD1021014800F0A9FB10BD21
:10437000007C004000B587B001210220FFF7B4F8AF
:1043800001211020FFF7E0F801211020FFF7ECF8E1
:1043900000211020FFF7E8F8072211462848FDF712
:1043A0004DFB8020059002208DF8180000208DF82C
:1043B0001A0001208DF81B0003208DF8190005A9B3
:1043C0001F48FDF7F3FA1F4800F0A8FB1E480190B4
:1043D0000020ADF80800ADF80A004FF48060ADF899
:1043E0000C000420ADF80E000020ADF8100001A96B
:1043F000144800F067FC0121124800F079FB1021FD
:10440000104800F05DFB10210E4800F062FB012215
:1044100040F224410B4800F030FC25208DF80000CC
:1044200005208DF8010000208DF8020001208DF894
:1044300003006846FEF7D0FF00F008F807B000BDA3
:104440000004024000100140A086010000B58FB0BA
:1044500001218805FFF748F8012240211F4800F09C
:1044600053FB1F48FCF7F2FE4FF0006000901B4822
:10447000001D01901B48029000200390242004900E
:10448000002005904FF4806006900020079008906F
:104490004FF4807009904FF440300A9000200B9048
:1044A00003200C9000200D900E9069460C48FDF7FB
:1044B00011F800220B4924310948FCF77EFF012145
:1044C0000748FCF76FFF00210548FCF7B3FE012108
:1044D0000348FCF7AFFE0FB000BD00000010014024
:1044E000406402400E4D002010B51021364800F007
:1044F0008DFB002867D040F22441334800F093FB45
:10450000002860D0304800F047FC3048FCF765FFD9
:1045100040BB00212D48FCF78DFE2C48FCF759FFCD
:10452000C0F124002A49088008460088242806D1C2
:104530002849294807F018FC052003F075FB2421C1
:104540002248FCF7F3FF2148006840F400201F498F
:10455000086022491D48FCF753FE01211B48FCF767
:1045600069FE28E001211948FCF764FE1C48FCF7AD
:1045700030FFC0F12400164908800846008824282E
:1045800007D114492431144807F0EEFB052003F04D
:104590004BFB24210D48FCF7C9FF0C48006820F4B0
:1045A00000200A4908600D490848FCF729FE01214E
:1045B0000648FCF73FFE1021034800F081FA102165
:1045C000014800F086FA10BD00100140406402402E
:1045D000340900200E4D0020F84C0020000030105F
:1045E0004060024000B587B001210820FEF77CFF43
:1045F00001218804FEF788FF01218804FEF794FF5B
:1046000000214FF48020FEF78FFF07220821294860
:10461000FDF714FA072209212648FDF70FFA4FF497
:104620004070059002208DF8180000208DF81A00C7
:104630008DF81B0003208DF8190005A91D48FDF712
:10464000B5F91D4800F06AFA4FF4E13001900020FE
:10465000ADF80800ADF80A00ADF80C000C20ADF87C
:104660000E000020ADF8100001A9134800F02AFB4D
:104670001021114800F024FA012240F224410E4892
:1046800000F0FBFA01210C4800F032FA27208DF8E7
:10469000000005208DF8010000208DF802000120A7
:1046A0008DF803006846FEF797FE00F007F807B0A4
:1046B00000BD0000000C02400048004000B58FB073
:1046C00001214805FEF710FF012240211E4800F09D
:1046D0001BFA1E48FCF7BAFD4FF0006000901A4824
:1046E000001D01901A480290002003904FF4806052
:1046F0000490002005904FF4806006900020079001
:10470000089009904FF440300A9000200B9003204D
:104710000C9000200D900E9069460C48FCF7DAFED4
:1047200000220C490948FCF748FE01210748FCF724
:1047300039FE00210548FCF77DFD01210348FCF707
:1047400079FD0FB000BD0000004800402860024025
:104750007A4D00207A4F00201CB5002001901021D6
:10476000164800F053FA38B340F22441134800F0E1
:104770005AFA08B3114800F00FFB10210F4800F05F
:104780009FF90F2003F050FA0D480068A0B101A86E
:104790000023012208210090094800680AF00EFD5C
:1047A000019848B1019838B14FF080500549086030
:1047B000BFF34F8FBFF36F8F1CBD00000048004058
:1047C0005400002004ED00E000B587B00121402036
:1047D000FEF78AFE01212020FEF7B6FE01218805A2
:1047E000FEF782FE01212020FEF7BEFE00212020E0
:1047F000FEF7BAFE082209212E48FDF71FF908220C
:104800000E212C48FDF71AF94FF484400590022040
:104810008DF8180000208DF81A0001208DF81B007B
:1048200003208DF8190005A92248FDF7BFF822489A
:1048300000F074F9214801900020ADF80800ADF8AF
:104840000A00ADF80C000C20ADF80E000020ADF809
:10485000100001A9184800F035FA1021164800F0A0
:104860002FF901224FF45871134800F006FA012283
:1048700040F22531104800F000FA012240F22441B4
:104880000D4800F0FAF901210B4800F031F94720FA
:104890008DF8000005208DF8010000208DF8020041
:1048A00001208DF803006846FEF796FD00F008F839
:1048B00007B000BD001802400014014000093D008F
:1048C00000B59FB001218805FEF70EFE01224021B0
:1048D000504800F019F9012280214E4800F014F9E7
:1048E0004D48FCF7B3FC4FF020600F904948001D85
:1048F00010904A4811900020129010201390002030
:1049000014904FF480601590002016901790189026
:104910004FF44030199000201A9003201B90002083
:104920001C901D900FA93C48FCF7D4FD3A48783004
:10493000FCF78CFC4FF0206000903648001D019081
:1049400037480290402003901120049000200590E9
:104950004FF48060069000200790089009904FF473
:1049600040300A9000200B9003200C9000200D9006
:104970000E90694628487830FCF7ACFD01221021E2
:1049800025487830FCF788FD45208DF87800042014
:104990008DF8790000208DF87A0001208DF87B00D9
:1049A0001EA8FEF719FD012210211B48FCF774FD1B
:1049B000012280211848FCF76FFD39208DF878001E
:1049C00004208DF8790000208DF87A0001208DF800
:1049D0007B001EA8FEF700FD002210490E48FCF7E0
:1049E000ECFC01210C48FCF7DDFC00210A48783082
:1049F000FCF720FC002108487830FCF71BFC002164
:104A00000548FCF717FC00210348FCF713FC1FB016
:104A100000BD00000014014028640240B959002084
:104A2000A859002010B51021234800F0EFF818B362
:104A300040F22441204800F0F6F8E8B11E4800F0AA
:104A4000ABF9002240F224411B4800F016F9002186
:104A50001A48FCF7EFFB10211848FCF767FD01210D
:104A60001648FCF7E7FB40F22441134800F031F808
:104A70001021114800F024F840F225310E4800F0D2
:104A8000C5F838B10C4800F087F940F225310A48E2
:104A900000F016F840F22661074800F0C4F848B16B
:104AA0004021054800F00CF8002240F2266102483F
:104AB00000F0E3F810BD000000140140286402403B
:104AC00001F40072B2F5007F00D100BFCA4302803A
:104AD000704710B50022002340F66A14A14200D1AD
:104AE00000BF0A1201249440A3B2DC43048010BD2D
:104AF00021B1828942F40052828104E082894DF61C
:104B0000FF731A40828170471AB1838A0B438382F4
:104B100002E0838A8B4383827047000010B504460D
:104B20003248844208D101211020FEF71DFD0021EA
:104B30001020FEF719FD57E02D48844209D10121CC
:104B40004804FEF7F1FC00214FF40030FEF7ECFCC6
:104B50004AE02848844209D101218804FEF7E4FC98
:104B600000214FF48020FEF7DFFC3DE02248844224
:104B700009D10121C804FEF7D7FC00214FF4002021
:104B8000FEF7D2FC30E01D48844209D1012108051E
:104B9000FEF7CAFC00214FF48010FEF7C5FC23E0AD
:104BA0001748844208D101212020FEF7DDFC0021B6
:104BB0002020FEF7D9FC17E01248844209D10121D8
:104BC0008807FEF7B1FC00214FF08040FEF7ACFCF7
:104BD0000AE00D48844207D101214005FEF7A4FCFC
:104BE00000216005FEF7A0FC10BD00000010014090
:104BF0000044004000480040004C0040005000408D
:104C00000014014000780040007C00400246002073
:104C1000B1F5007F00D100BF13880B400BB101201C
:104C200000E00020704770B50246002400230025F4
:104C3000002040F66A16B14200D100BFC1F3421510
:104C400001F01F03012606FA03F3012D02D1968914
:104C5000334006E0022D02D1168A334001E0968AE5
:104C600033400C12012606FA04F41688344013B1BE
:104C70000CB1012000E0002070BDF0B50346002417
:104C800000260025002040F66A17B94200D100BF77
:104C90001846C1F3421401F01F06012707FA06F572
:104CA000012C01D10C3004E0022C01D1103000E0C5
:104CB00014301AB107682F43076002E00768AF435A
:104CC0000760F0BD2DE9FF4705460E460024A146CA
:104CD00000BFA046B08900B100BF2C8A24F4405424
:104CE000F08804432C82AC8941F20C608443B08884
:104CF00031890843718908430443AC81AC8A24F4A8
:104D00004074B0890443AC826846FEF73DFC2048FD
:104D1000854202D01F48854202D1DDF80C9001E0A7
:104D2000DDF80890A88900F4004040B109EBC90003
:104D300000EB091031684900B0FBF1F707E009EB1F
:104D4000C90000EB091031688900B0FBF1F764205D
:104D5000B7FBF0F004012009642101FB1078A88959
:104D600000F4004040B1322000EBC800B0FBF1F08D
:104D700000F00700044308E0322000EB0810642133
:104D8000B0FBF1F000F00F0004432C81BDE8FF8779
:104D9000001001400014014001468888C0F308005B
:104DA000704700BFFEE70FB49DF8010030B1012845
:104DB00005D0022804D0032806D102E000BF00BFBE
:104DC00000BF012004B070470020FBE70FB4084B80
:104DD00010B504A902AA039800F026F8044602A917
:104DE000002000F0FDF8204610BC5DF814FB000028
:104DF000E14F00082DED020B019820F000400190DA
:104E00009DED000B02B0704702E008C8121F08C1F8
:104E1000002AFAD170477047002001E001C1121F3B
:104E2000002AFBD1704700002DE9FF4F8BB09A4656
:104E30000F460546002606E025280BD052460D9960
:104E400090476D1C761C28780028F5D10FB03046AD
:104E5000BDE8F08F0024A0460122604900E0044331
:104E600015F8013F203B02FA03F00842F7D12878F9
:104E70002E2817D115F8010F44F004042A280ED06B
:104E80006FF02F022878A0F1300109290AD808EB29
:104E9000880102EB410100EB01086D1CF2E757F8B5
:104EA000048B6D1C287869283ED006DC0028CDD004
:104EB00063280BD0642804D136E0732810D07528FD
:104EC0004BD052460D999047761C85E017F8040B9D
:104ED0008DF8000000208DF80100E946012003E074
:104EE00057F8049B4FF0FF3061074FF0000401D4E6
:104EF0000AE0641C44450DDA8442FADB19F8041018
:104F00000029F6D106E0641C8442FCDB19F8041089
:104F10000029F8D1264404E019F8010B52460D99F6
:104F20009047641EF8D257E001CF4FF00A0B0028DB
:104F300002DA40422D2102E0210504D52B218DF813
:104F40002410012103E0E10705D02021F7E70DF14E
:104F5000200908910CE00021F9E701CF4FF00A0B7E
:104F6000F9E75946FBF76EFB01F1300209F8012D14
:104F70000028F6D1ADEB090000F1200B600701D449
:104F80004FF00108D84502DDA8EB0B0000E000203F
:104F90008046002406E009A85246005D0D9990471E
:104FA000641C761C08988442F5DB04E030205246ED
:104FB0000D999047761CB8F10001A8F10108F5DCC5
:104FC00005E019F8010B52460D999047761CBBF18C
:104FD0000001ABF1010BF4DC6D1C34E70928010082
:104FE0000A68531C0B6010707047D0ED000AF4EE95
:104FF000C00AF1EE10FA01DD80ED000AD0ED000AE2
:10500000B1EE401AF4EEC10AF1EE10FA03D2F1EE5D
:10501000400AC0ED000A704770B505460C460026F0
:105020000DB1022C00D870BDA11E0648028828468A
:1050300003F070FA0646A01E2E54310A601E295451
:1050400000BFF0E75605002070B505460C46002667
:105050000DB1022C00DC70BD601E81B2FF2228461B
:1050600003F072FA0646601E2E5400BFF3E70000FC
:1050700010B51F48007A032802D101201D4908708D
:105080001D48C07838B900201C49087008211C4808
:10509000FCF7F7FC2BE01948007830B901201749DC
:1050A000087000201349087021E014480078012896
:1050B0000CD11048007848B10D48007A022805D17B
:1050C0000E49087000200B49087010E00B4800786A
:1050D00002280CD10748007848B10548007A022818
:1050E00005D101200549087000200249087010BD53
:1050F000F84C0020CD040020C4160020CC04002071
:105100000008024010B5FFF7B3FF1448C07848B953
:105110001348007830B10220124908700821124863
:10512000FCF7AFFC11480078012808D10C49087041
:105130000C49087008210C48FCF7A5FC0DE00B4851
:105140000078022809D1012005490870002005498E
:10515000087008210448FCF796FC10BDC416002016
:10516000C5040020C404002000080240CC04002034
:10517000012002494870024908707047C416002097
:10518000F400002005480078042803D1044890F872
:10519000680008B1002070470120FCE7EE00002005
:1051A0009C13002010B530210548FBF790F8002033
:1051B00003494870087108210248FCF762FC10BDE1
:1051C000C41600200008024008B543E04FF0FF334A
:1051D0006A464FF4003100200AF056F90446012CCB
:1051E00038D1009800F40030002833D01A480078F5
:1051F00000282FD018480078042813D11748407889
:1052000010B90020164908701548007810B101281F
:1052100006D102E0FFF7ACFF03E0FFF773FF00E009
:1052200000BF0EE000200F4908700F4908700025EC
:1052300005E008210D48FCF724FC681CC5B2032DCD
:10524000F7DBFFF79FFF00230122110208480068E7
:1052500009F032FFBAE70000EE000020C41600207B
:10526000F4000020CD040020C50400200008024006
:105270003000002010B53348007820B101281DD03F
:1052800002285CD14FE00F2204212F48FDF79CF942
:10529000FCF776FD2D49086000202D4908702D4946
:1052A000087004212C48FCF7ECFB40212B48FCF74C
:1052B000E8FB04212848FCF7E4FB40E024480078A0
:1052C00040BBFCF75DFD21490968401AC8280CD194
:1052D0004FF49060FEF756F82148B0F87A08143879
:1052E00001B21F48A0F87A181CE0FCF749FD1749E5
:1052F0000968401AB0F5FA6F14D91A4800780228E4
:1053000004DA18480078401C16490870012010493A
:10531000087007E00121144880F88C10FCF730FD7C
:105320000A4908600BE00B48007820B908F03CF807
:105330000849087002E000200249087000BF00BF61
:1053400010BD0000DE0800202C4C002024090020A5
:10535000280900202909002000080240001002400E
:10536000401D00202B090020384C002010B5364885
:10537000007820B101281DD0022863D156E00F2209
:1053800004213248FDF720F9FCF7FAFC30490860A7
:105390000020304908703049087004212F48FCF77C
:1053A00070FB40212E48FCF76CFB04212B48FCF7D6
:1053B00068FB47E02748007890BBFCF7E1FC2449F4
:1053C0000968401AC8280CD14FF49060FDF7DAFF45
:1053D0002448B0F87A080A3801B22248A0F87A18AE
:1053E00023E0FCF7CDFC1A490968401A40F2DC5171
:1053F00088421AD91B48B0F8BA0C00F5487001B2BF
:105400001848A0F8BA1C18480078022804DA164890
:105410000078401C1449087001200E49087004E00F
:10542000FFE7FCF7ADFC0A4908600BE00A4800788A
:1054300020B907F0B9FF0849087002E000200249CE
:10544000087000BF00BF10BDDE0800202A4C0020FD
:105450002409002028090020290900200008024012
:1054600000100240401D00202B09002008B56AE012
:105470004FF0FF336A46344900200AF005F804462D
:10548000012C60D1009800F0100050B12F4DB5F9FB
:105490000830B5F90620B5F90410B5F9020006F098
:1054A00061FE009800F40000E0B1284BB3F90E2033
:1054B000B3F90C10B3F90A0006F02CFE244DB5F92F
:1054C0000830B5F90620B5F90410B5F9020006F068
:1054D000A3FE2B46B3F90E20B3F90C10B3F90A0062
:1054E00006F072FE009800F4007038B3174DB5F95D
:1054F0000830B5F90620B5F90410B5F9020006F038
:1055000031FE2B46B3F90E20B3F90C10B3F90A00A3
:1055100006F000FE0E4DB5F90830B5F90620B5F9D4
:105520000410B5F9020006F077FE2B46B3F90E2001
:10553000B3F90C10B3F90A0006F046FE002008F09B
:10554000CFFD0449086093E7D0138000B02E0020FF
:10555000C22E00205005002010B500F001F810BD4B
:10556000002018490870184890ED000AF7EE000A6C
:1055700020EE200A1548D0ED050AB7EE001A10EE0D
:10558000C10A134880ED020A0F4890ED010AF7EEB8
:10559000000A20EE200A0D48D0ED060AB7EE001AE8
:1055A00010EEC10A0A4880ED010A074890ED020A90
:1055B000B1EE400AF7EE000A20EE200A044880ED22
:1055C000030A704799000020C44000201C400020BE
:1055D000781200201E4800881E490988084400B23D
:1055E0001D4908801A4840881A490989401A00B2A2
:1055F0001A4908801A48808E098808441649098883
:10560000401A00B2164988850846C08E1349098899
:10561000084411490988084401B21148C185008F26
:105620000E490988401A0C490988084401B20C48FF
:105630000186408F09490988401A07490988401A9C
:1056400001B20748418601200649087070470000F2
:10565000301D0020944000209A0000209C00002073
:10566000781200209E000020184890ED000AF7EE06
:10567000000A20EE200A1648D0ED050AB7EE001AFF
:1056800010EEC10A134880ED020A104890ED010A9D
:10569000F7EE000A20EE200A0D48D0ED060AB7EE1C
:1056A000001A10EEC10A0B4880ED010A074890ED80
:1056B000020AB1EE400AF7EE000A20EE200A054881
:1056C00080ED030A0020044908707047C4400020A0
:1056D0001C400020781200209E0000200548007821
:1056E00018B1054890F8680008B100207047012003
:1056F000FCE70000EE0000209C1300202DE9F041A3
:105700002DED048B05460E46144600EE105AB8EEF9
:10571000C00ADFED400A80EE201A9FED3F0A21EE1D
:10572000000AF7EE000A20EE200A3C4880ED000A4D
:10573000704200EE100AF8EEC00A9FED361A80EEB5
:10574000810ADFED350A20EE200AF7EE000A20EE8E
:10575000200A324880ED010A00EE104AB8EEC00A75
:10576000DFED2C0AB4EE600AF1EE10FA0ED000EE76
:10577000104AB8EEC00ADFED2A0AB4EE600AF1EE74
:1057800010FA03D0FCF7FCFA26490860FCF7F8FA97
:1057900024490968401AB0F5FA6F13D900EE104A8F
:1057A000F8EEC00A9FED1B1A80EE810ADFED1E0A9B
:1057B00020EE200AF7EE000A20EE200A174880EDBE
:1057C000020A22E000EE104AB8EEC00A9FED111A5C
:1057D000C0EE010A9FED140A20EE800AF7EE000ADF
:1057E00020EE200A10EE107A3846FAF7CBFE41EC94
:1057F000190B9FED0E0B53EC102BFAF721FE41EC29
:10580000180BFAF703FF05498860BDEC048BBDE86F
:10581000F08100000000254400404E45C4400020B7
:10582000000025C4E40800200000F0430000000050
:105830000000E03F10B548211D48FAF748FD4FF43D
:105840007A711C4806F06CF91B48D0ED021AB0EED4
:10585000611AD0ED011AF0EE610AD0ED001AB0EE37
:10586000610A00219FED152ADFED151A1548FDF795
:10587000F9FD002419E01049D1ED051AB0EE611AC6
:10588000D1ED041AF0EE610AD1ED031AB0EE610A0F
:1058900004EB84010C4A02EB011000219FED0B2A5E
:1058A000DFED0B1AFDF7DEFD641C042CE3DB10BDFD
:1058B00078120020C0120020A00000200000484202
:1058C0000000F04318420020D84000200000FA43B6
:1058D00000401C469FED060A064880ED020A9FED37
:1058E000040A80ED010A9FED020A80ED030A704769
:1058F000000000007812002008B538E14FF0FF33B7
:105900006A464FF40051002009F0BEFD0546012D06
:10591000F3D1009800F400500028EED09448D0ED68
:10592000021AB0EE611AD0ED011AF0EE610AD0ED64
:10593000001AB0EE610A01219FED8E2ADFED8E1A6A
:105940008E48FDF78FFD002419E08949D1ED051A35
:10595000B0EE611AD1ED041AF0EE610AD1ED031A2E
:10596000B0EE610A04EB8401854A02EB01100121CB
:105970009FED842ADFED841AFDF774FD641C042C6E
:10598000E3DB8248007800287ED0804800780F282A
:1059900037D2DFE800F036080A0B0916191C2D3043
:1059A0001310330C0D0000BF00BF00BF00BF00BFCD
:1059B000FFF7D2FD28E0FFF7D3FD25E0FFF7D0FD8C
:1059C00022E0FFF751FE1FE0FFF704FE1CE07048E5
:1059D0000078012802D1FFF7C3FD08E06C48007889
:1059E000022802D1FFF7BCFD01E0FFF7B9FD0BE093
:1059F000FFF7B6FD08E0FFF7B3FD05E0FFF76AFF2C
:105A000002E0FFF767FF00BF00BF6048007806288C
:105A100002D000205F4908705F48D0ED031AB0EE55
:105A2000611AD0ED021AF0EE610AD0ED011AB0EE63
:105A3000610A1C3004F000FE5648007828BB0024A0
:105A40002DE055491C3131F9141001EE101AB8EE51
:105A5000C11AF0EE410A5049143131F9141001EE27
:105A6000101AB8EEC11AB0EE410A04EB8401444AA0
:105A700002EB011005F070F9BDEEC00A10EE100A3D
:105A800001B245483C3001E066E00BE020F814101C
:105A9000183830F81410103020F81410641C042C3E
:105AA000CFDB4BE03B480078012847D1002443E09E
:105AB00039482C3030F9140001EE100AB8EEC11A42
:105AC000F0EE410A3448243030F9140001EE100A97
:105AD000B8EEC11AB0EE410A284805F03DF9BDEE16
