:020000040800F2
:10000000E862022079020008092E00081D19000884
:100010006D190008CF070008BF4600080000000067
:10002000000000000000000000000000C101000806
:10003000291300080000000015020008BD34000864
:10004000930200089302000893020008930200083C
:10005000930200089302000893020008930200082C
:10006000930200089302000893020008930200081C
:10007000930200089302000893020008930200080C
:1000800093020008930200089302000893020008FC
:10009000E108000893020008930200089302000898
:1000A00093020008930200089302000893020008DC
:1000B0009302000895360008930200089302000896
:1000C00093020008930200089302000893020008BC
:1000D00093020008113F00089302000881410008C4
:1000E000930200089302000893020008930200089C
:1000F000930200089302000893020008930200088C
:10010000930200089302000893020008930200087B
:10011000930200089302000893020008930200086B
:10012000930200089302000893020008930200085B
:10013000930200089302000893020008930200084B
:10014000210A0008930200089302000893020008A5
:100150009302000893020008930200086D43000810
:10016000930200089302000893020008930200081B
:10017000930200089302000893020008930200080B
:10018000930200089302000893020008713D0008E2
:1001900093020008930200089302000893020008EB
:1001A000000000000000000093020008DFF80CD0FF
:1001B00000F0D0FA0048004771960008E86202207B
:1001C0002A4B19680868B0E8F04F80F30988BFF33C
:1001D0006F8F4FF0000080F311887047000000001F
:1001E00006480068006880F3088862B661B6BFF30D
:1001F0004F8FBFF36F8F00DF00BF00BF08ED00E03F
:10020000DFF80C00016841F470010160704700BF25
:1002100088ED00E0EFF30980BFF36F8F134B1A688E
:100220001EF0100F08BF20ED108A20E9F04F10607B
:1002300008B44FF0500080F31188BFF34F8FBFF325
:100240006F8F0DF0D5FB4FF0000080F3118808BCD4
:1002500019680868B0E8F04F1EF0100F08BFB0EC46
:10026000108A80F30988BFF36F8F7047D808002089
:10027000EFF30580704700000648804706480047B6
:10028000FEE7FEE7FEE7FEE7FEE7FEE7FEE7FEE746
:10029000FEE7FEE709350008AD01000840EA01036A
:1002A0009B0703D009E008C9121F08C0042AFAD22C
:1002B00003E011F8013B00F8013B521EF9D27047F0
:1002C000D2B201E000F8012B491EFBD27047002298
:1002D000F6E710B513460A4604461946FFF7F0FF45
:1002E000204610BD421C10F8011B0029FBD1801ACA
:1002F00070472DE9FE4F804681EA0300C00F0C468F
:10030000009021F0004123F00045B8EB0200A94124
:1003100005D24046214690461C460B46024623F035
:100320000040104347D0270DC7F30A00C3F30A511A
:100330000290401A019040286BDAC3F3130040F496
:10034000801B0098924620B10023D2EB030A63EB96
:100350000B0B01985946C0F14002504600F06CF971
:1003600006460D4650465946019A00F084F910EBB6
:1003700008006141002487EA115284EAE7731A43B6
:1003800040D0009A62B3019A012A4FEA075215DC65
:10039000001B61EB02014FF0004202EA0752CDE977
:1003A0000042001C41F5801132462B4600F084F9D2
:1003B00003B0BDE8F08F40462146F9E7001B61EB32
:1003C0000201001C41F5801300185B412018A2F5C2
:1003D000001747EB030140EAD570B6196D4111E0F3
:1003E0006D084FEA360645EAC0754FEA0752001B12
:1003F00061EB0201001C41F5801149084FEA300011
:100400000019514132462B4603B0BDE8F04F00F0D1
:1004100044B90098012240000023D0EB020263EBB4
:10042000E073009821464FEAE074B8EB000061EBFE
:100430000401E9E783F000435BE781F0004158E7FE
:100440002DE9FE4F81EA030404F0004421F000414D
:1004500000944FF0000B23F0004350EA01045ED0FB
:1004600052EA03045BD0C3F30A54C1F30A552C4487
:10047000A4F2F3340194A0FB0254C1F3130141F43C
:100480008011C3F3130343F4801301FB024400FB08
:10049000034E840A970A44EA815447EA8357A4FB2F
:1004A000076802958D0A05FB07854FEA932C04FB2C
:1004B0000C542705029D4FEA065847EA1637B5EB5C
:1004C00008056EEB070C870E920E47EA811742EA89
:1004D0008312A7FB0201B6EB0B0164EB00042B0DAA
:1004E00043EA0C335E1844EB1C50DA465146E7FBF6
:1004F0000201C5F313044FEA0B3343EA14534FEAE6
:100500000432019C43EA0603A4F10C040294009C0B
:10051000CDE900B400F0D0F803B0BDE8F08F0020C2
:100520000146F9E70EB5C10F80EAE0700844CA073A
:10053000002140F233438DE80E000A460B4600F0DE
:10054000BBF803B000BD70B5C1F30A5201F000451D
:100550000024C1F3130140F2FF3341F480119A42A9
:1005600001DA002070BD40F233439A42A2F23342D6
:1005700003DC524200F06FF800E090402C43F1D0D1
:10058000404270BD00F0004230F000400AD0C10D82
:1005900001F56071C0F3160042EA0151C20840073C
:1005A00011437047002001467047000030B5041E1B
:1005B00071F1000404DB4FF00044404264EB0101A0
:1005C000141E73F1000405DB1C464FF00043524239
:1005D00063EB04038B4208BF824230BD30B5041E7A
:1005E00071F1000404DB4FF00044404264EB010170
:1005F000141E73F1000405DB1C464FF00043524209
:1006000063EB0403994208BF904230BD30B50B46FE
:10061000014600202022012409E021FA02F59D4232
:1006200005D303FA02F5491B04FA02F52844151E06
:10063000A2F10102F1DC30BD202A04DB203A00FAED
:1006400002F1002070479140C2F1200320FA03F329
:10065000194390407047202A04DB203A21FA02F027
:100660000021704721FA02F3D040C2F120029140EC
:10067000084319467047202A06DBCB17203A41FA77
:1006800002F043EAE07306E041FA02F3D040C2F11F
:100690002002914008431946704710B5141E73F1AB
:1006A000000408DA401C41F1000192185B411A4332
:1006B00001D120F0010010BD2DE9F04D92469B467E
:1006C00011B1B1FA81F202E0B0FA80F22032904624
:1006D000FFF7B2FF04460F4640EA0A0041EA0B0169
:1006E00053465A46084313D0114653EA010019D025
:1006F000C8F140025046FFF7AEFF05460E46504691
:1007000059464246FFF798FF084305D0012004E010
:1007100020463946BDE8F08D0020054346EAE076E4
:100720002C4337430A986305E40AA0EB0800002233
:10073000FD0A44EA47540A3002D500200146E9E7A1
:10074000010510196941DDE9084500196941BDE855
:10075000F04DA2E7064C074D06E0E06840F00103CB
:1007600094E8070098471034AC42F6D3FFF722FD17
:10077000D8ED0008F8ED000870B58C1810F8015B92
:1007800015F0070301D110F8013B2A1106D110F82A
:10079000012B03E010F8016B01F8016B5B1EF9D12E
:1007A0002B0705D40023521E0DD401F8013BFAE7B4
:1007B00010F8013BCB1A921C03E013F8015B01F81F
:1007C000015B521EF9D5A142D8D3002070BD00BFF5
:1007D000FEE700002DE9F0418AB004460D461746B9
:1007E0001E46DDF840800121082002F093FB012124
:1007F000480602F09FFB0121480602F0ABFB0021F6
:100800004FF0007002F0A6FB0320089002208DF844
:10081000240000208DF8260001208DF827000320F9
:100820008DF8250008A92C4800F0FAFE09220021C5
:10083000294800F03DFF09220121274800F038FF38
:1008400001208DF81B0000208DF81C008DF81A0087
:100850008DF81F008DF81D008DF81E008DF81640D4
:10086000ADF814808DF818708DF819608DF8175058
:1008700005A91A4800F05DFA0020ADF80C008DF8CB
:100880000F0001208DF810000020ADF80400ADF835
:100890000600ADF80800ADF80A008DF80E00012042
:1008A0008DF8110001A800F027F9012202210B4860
:1008B00000F036FA14208DF8000004208DF80100B5
:1008C00000208DF8020001208DF80300684602F038
:1008D0009DFA0AB0BDE8F081000C024000640040BF
:1008E00010B50221084800F08BF960B102210648DA
:1008F00000F0AEF8054A0021034800F0A4FA0349CD
:10090000014802F049FC10BD006400405409002079
:100910002DE9F0418AB004460D4617461E46DDF823
:1009200040800121022002F0F5FA0121880602F040
:1009300001FB0121880602F00DFB00214FF08060D1
:1009400002F008FB4FF44050089002208DF824007C
:1009500000208DF826008DF8270003208DF8250053
:1009600008A92D4800F05CFE09220C212A4800F05D
:100970009FFE09220D21284800F09AFE01208DF8E3
:100980001B0000208DF81C008DF81A008DF81F0048
:100990008DF81D008DF81E008DF81640ADF81480FE
:1009A0008DF818708DF819608DF8175005A91B483F
:1009B00000F0BFF90020ADF80C008DF80F00012009
:1009C0008DF810000020ADF80400ADF80600ADF879
:1009D0000800ADF80A000E208DF80E0001208DF8F9
:1009E000110001A800F088F8012202210B4800F054
:1009F00097F940208DF8000004208DF801000020B8
:100A00008DF8020001208DF80300684602F0FEF91F
:100A10000AB0BDE8F0810000000402400068004018
:100A200010B50221084800F0EBF860B10221064839
:100A300000F00EF8054A0021034800F004FA0349CB
:100A4000014802F0A9FB10BD0068004068090020C1
:100A5000B1F5007F3AD00FDC202928D006DC01292F
:100A60001CD004291DD0082940D11DE0402921D0E7
:100A7000B1F5807F3AD126E0B1F5004F31D006DCE8
:100A8000B1F5806F25D0B1F5006F2FD124E0B1F51D
:100A9000803F12D0B1F5003F28D111E0154A8260A5
:100AA00025E00822C26022E01022C2601FE0082276
:100AB00002611CE01022026119E00822426016E087
:100AC0001022426013E00422426010E004224260DF
:100AD0000DE0042242600AE00022826104224260AA
:100AE00005E0002282610422426000E000BF00BFF6
:100AF000704700000101010010B50021837A012236
:100B000002FA03F13D4A126842F001023B4B1A60BF
:100B10003A4A1C3212688A43384B1C331A60027BF3
:100B2000CAB9364A0C3212688A43344B0C331A6005
:100B30004288C38842EA0343304A4032847A42F80A
:100B400034300288838842EA03432C4A4032847A54
:100B500002EBC4025360027B012A19D1274A0C32EE
:100B600012680A43254B0C331A604288038842EA14
:100B70000343224A4032847A42F83430C288838860
:100B800042EA03431D4A4032847A02EBC4025360B6
:100B9000C27A3AB9194A121D12688A43174B1B1DB3
:100BA0001A6006E0154A121D12680A43134B1B1DFA
:100BB0001A60028932B9114A143212688A430F4B03
:100BC00014331A600289012A06D10C4A14321268C1
:100BD0000A430A4B14331A60427B012A06D1074AA2
:100BE0001C3212680A43054B1C331A60034A126810
:100BF00022F00102014B1A6010BD000000660040A7
:100C000070B504460D46002660692840002871D062
:100C1000B5F5807F5CD010DC082D35D006DC012DC9
:100C200020D0022D24D0042D72D127E0102D31D0F8
:100C3000202D35D0402D6BD138E0B5F5004F60D078
:100C400009DCB5F5007F49D0B5F5806F4CD0B5F51E
:100C5000006F5DD14FE0B5F5803F2DD0B5F5003F79
:100C600056D12FE0A0682D4900F02EFA064651E03B
:100C7000E068032100F028FA06464BE0E06808210E
:100C800000F022FA064645E0E068102100F01CFA68
:100C900006463FE02069032100F016FA064639E0D7
:100CA0002069082100F010FA064633E0206910217F
:100CB00000F00AFA06462DE06068082100F004FA08
:100CC000064627E06068102100F0FEF9064621E0A4
:100CD000A069012100F0F8F906461BE0A069022195
:100CE00000F0F2F9064615E0A069042100F0ECF9E5
:100CF00006460FE00FE0A069702100F0E5F9064616
:100D000008E06068042100F0DFF9064602E0FFE732
:100D1000002600BF00E00026304670BD0101010042
:100D20001AB143690B43436102E043698B4343615A
:100D3000704730B5024600200023146824F00204F6
:100D40001460146844F00104146000E05B1C5468F3
:100D500004F001041CB94FF6FF74A342F6D15468A5
:100D600004F001040CB900206CE08C79012C04D152
:100D7000146844F08004146003E0146824F08004D4
:100D80001460CC79012C04D1146844F04004146040
:100D900003E0146824F0400414600C7A012C04D1A0
:100DA000146844F02004146003E0146824F0200464
:100DB00014604C7A012C04D1146844F010041460BF
:100DC00003E0146824F0100414608C7A012C04D120
:100DD000146844F00804146003E0146824F0080464
:100DE0001460CC7A012C04D1146844F0040414601B
:100DF00003E0146824F0040414608C78A407CD7810
:100E000044EA05640D7944EA05444D7944EA055401
:100E10000D886D1E2C43D461146824F00104146005
:100E2000002300E05B1C546804F001041CB14FF681
:100E3000FF74A342F6D1546804F001040CB1002001
:100E400000E0012030BD10B500F5D87303EB0113AD
:100E50001B6803F004031372137A53B900F5D873B7
:100E600003EB01131B6840F2FF7404EA5353136051
:100E700009E000F5D87303EB01131B686FF06044C1
:100E800004EAD303536000F5D87303EB01131B6826
:100E900003F00203537200F5D87303EB01135B6890
:100EA00003F00F03937200F5D87303EB01135B6833
:100EB0001B0AD37400F5D87303EB01139B68D3723C
:100EC00000F5D87303EB01139B681C0A147300F53B
:100ED000D87303EB01139B681C0C547300F5D87393
:100EE00003EB01139B681B0E937300F5D87303EBA0
:100EF0000113DB68D37300F5D87303EB0113DB68D0
:100F00001C0A147400F5D87303EB0113DB681C0C86
:100F1000547400F5D87303EB0113DB681B0E937454
:100F200021B9C36843F02003C36003E0036943F0C1
:100F30002003036110BD10B502460020936803F042
:100F40008063B3F1806F00D110E0936803F0006319
:100F5000B3F1006F01D1012008E0936803F08053E2
:100F6000B3F1805F01D1022000E00420042874D096
:100F700002F5C07303EB00131B6803F0010402F5D4
:100F8000C07303EB00131C600B7A7BB94B7A0C889F
:100F900043EA445302F5C07404EB0014246823436D
:100FA00002F5C07404EB0014236010E00B7A4C6867
:100FB00043EAC4034C7A234302F5C07404EB0014E3
:100FC0002468234302F5C07404EB001423608B7A79
:100FD00003F00F038B7202F5C07303EB00135B6821
:100FE00023F00F0402F5C07303EB00135C6002F5FD
:100FF000C07303EB00135B688C7A234302F5C07463
:1010000004EB001463608B7B1C064B7B44EA0344B7
:101010000B7B44EA0323CC7A234302F5C07404EB30
:101020000014A3608B7C1C064B7C44EA03440B7CBD
:1010300044EA0323CC7B234302F5C07404EB001481
:10104000E36002F5C07303EB00131B6843F0010477
:1010500002F5C07303EB00131C6010BD4A7822B187
:10106000012A0FD0022A27D119E090ED030AB8EE29
:10107000C00ADFED120A80EE201ABDEEC10A80ED33
:10108000040A19E090ED030AB8EEC00ADFED0C0A7D
:1010900080EE201ABDEEC10A80ED040A0CE090ED4E
:1010A000030AB8EEC00ADFED070A80EE201ABDEE93
:1010B000C10A80ED040A00BF00BF7047610BB64152
:1010C000832DD843CDCC4C440246002002EA0103D4
:1010D0000BB1012000E00020704700000246094BE0
:1010E0009A4201D2084801E00648103801F0005346
:1010F0001BB1064B0B40C36002E0044B0B40836006
:101100007047000010640240006002407D0F7D0FB8
:1011100021B1026842F00102026003E0026822F09D
:101120000102026070470000016821F001010160C6
:101130000021016041608160C16001612121416144
:101140004A49884204D13D21484A103A91608CE0D6
:1011500046491831884205D14FF47461434A103A28
:10116000916082E041493031884205D14FF47411D9
:101170003E4A103A916078E03C494831884205D1B6
:101180004FF07461394A103A91606EE0374960312E
:10119000884204D13649354A103AD16065E0334976
:1011A0007831884204D13349304A103AD1605CE04A
:1011B0002E499031884204D12F492C4A103AD160EF
:1011C00053E02A49A831884205D14FF03D51274AC2
:1011D000103AD16049E02949884204D13D21274A8B
:1011E000083A116041E025491831884205D14FF491
:1011F0007461224A083A116037E020493031884250
:1012000005D14FF474111D4A083A11602DE01B49B5
:101210004831884205D14FF07461184A083A11608C
:1012200023E016496031884204D11149134A121F44
:1012300011601AE011497831884204D10D490F4AF2
:10124000121F116011E00D499031884204D10A4902
:101250000A4A121F116008E00849A831884204D1E7
:101260004FF03D51054A121F116070471060024057
:101270003D000020400F002000003D20106402408F
:1012800021B1026842F48022026003E0026822F485
:1012900080220260704722B1036843F40023036098
:1012A00003E0036823F400230360016170470146F3
:1012B000486880B27047014600200A6802F40022A4
:1012C0000AB1012000E000207047000010B50022A4
:1012D0000268134B1A40CC680B6823434C692343C4
:1012E0008C692343CC6923430C6A23434C6A234310
:1012F0008C6A23434C6B23438C6B23431A43026059
:10130000426922F00702D1E90B3423431A434261B8
:101310000B6943604B6883608B68C36010BD00003D
:101320003F801CF041607047704700000021234956
:101330008279002A3AD00A46126803689A430B461B
:101340001A600A1D126803689A430B1D1A6002791D
:1013500011440A6803681A430A60184A083212687E
:1013600003689A43154B08331A601A1D1268036804
:101370009A43124B0C331A604279102A0ED11A1F6D
:10138000126803681A430D4B08331A601A1D12685D
:1013900003681A43094B0C331A600DE00749427980
:1013A00011440A6803681A430A6005E0027911448F
:1013B0000A6803689A430A6070470000003C0140D5
:1013C0001CB50121084601F0A5FD0121022001F014
:1013D000A1FD0121042001F09DFD0121102001F05B
:1013E00099FD0121202001F095FD0121802001F0CF
:1013F00091FD0121080201F08DFD0121402001F045
:1014000089FD4FF4FC70009001208DF804008DF8E8
:10141000070000208DF806008DF805006946794820
:1014200000F0FEF8F821774800F067F94FF480717A
:10143000744800F060F92020009001208DF804002D
:101440008DF8070000208DF806008DF8050069462C
:101450006D4800F0E5F820216B4800F04EF90C20B3
:1014600000906946694800F0DBF80C21674800F0FD
:1014700044F9202000906946644800F0D1F820210A
:10148000624800F03AF94FF4806000906946604885
:1014900000F0C6F84FF480615D4800F02EF94FF47B
:1014A0008350009069465B4800F0BAF860215948C3
:1014B00000F023F9032000906946554800F0B0F889
:1014C0000221534800F019F90220009069464F4864
:1014D00000F0A6F801208DF804008DF80700002028
:1014E0008DF806008DF805000220009069464848F6
:1014F00000F096F8202000906946464800F090F8E9
:10150000402000906946434800F08AF8042000908B
:1015100069463E4800F084F80820009069463B4840
:1015200000F07EF8102000906946384800F078F806
:10153000202000906946354800F072F82020009085
:101540006946314800F06CF80220009069462F4847
:1015500000F066F80120009069462D4800F060F820
:1015600001212B4800F0C9F84020009001208DF89F
:10157000040000208DF807008DF806008DF80500A6
:101580006946234800F04CF80420009000208DF8B4
:1015900004008DF8070069461F4800F041F800205C
:1015A0008DF8040001208DF8070000208DF806005A
:1015B0008DF805004FF4806000906946144800F0F3
:1015C0002FF84FF4007000906946144800F028F896
:1015D00000208DF8040002208DF8070000208DF80F
:1015E00006008DF805002020009069460B4800F0A9
:1015F00017F8402000906946084800F011F800F004
:101600008FF91CBD00180240000002400008024093
:10161000001402400010024000040240002002407A
:10162000F0B50A4600210023002400BF3DE001255B
:1016300005FA01F3156805EA03049C4234D10568F4
:101640004F000326BE40B543056015794E00B540F6
:101650000668354305601579012D02D01579022DF4
:1016600016D185684F000326BE40B5438560557985
:101670004E00B540866835438560456801268E403A
:10168000B5434560456896798E40B6B235434560AE
:10169000C5684F000326BE40B543C560D5794E00EE
:1016A000B540C6683543C560491C1029BFD3F0BD9D
:1016B000F0B5002300244D07ED0E02FA05F3CE101D
:1016C00000F1200555F826504E07F70E0F26BE40B4
:1016D000B543CF1000F1200646F82750CE1000F198
:1016E000200555F8265045EA0304CE1000F12005E8
:1016F00045F82640F0BD41837047018370470000E4
:1017000030B5B3B00024A8E004EBC40000EB400007
:10171000734A02EBC00000F11001C8226846FEF7D0
:10172000BDFD04EBC40000EB40006D4901EBC005BA
:101730000FCD02F0C6FF00287ED004EBC40000EB02
:101740004000674901EBC000C07A401EC5B204EBFF
:10175000C40000EB400001EBC000807A012802D0F9
:10176000022876D139E004EBC40202EB42025C4B62
:1017700003EBC2015B4A02EB8510FFF76FFC59488F
:1017800000EB8510018804EBC40000EB4000544AD4
:1017900002EBC0000161534800EB8510818804EB27
:1017A000C40000EB400002EBC00081834D4800EB19
:1017B0008510016904EBC40000EB400002EBC0009F
:1017C0004161484800EB8510C18804EBC40000EB80
:1017D000400002EBC00001843BE004EBC40202EBDA
:1017E00042023F4B03EBC2013F4A02EB8510FFF779
:1017F00035FC3D4800EB8510018804EBC40000EB8C
:101800004000374A02EBC0000161374800EB851009
:10181000818804EBC40000EB400002EBC000818330
:10182000314800EB8510016904EBC40000EB400077
:1018300002EBC000416100E00DE02B4800EB851099
:10184000C18804EBC40000EB400002EBC00001843F
:1018500000BF00BF00BF601CC4B2102CFFF654AF25
:10186000002439E02148007805281BD01F48007863
:10187000062817D000201B4901EB84118860194805
:1018800000EB84100188174800EB8410806801EB9E
:101890004030144901EB8411898A401A114901EB47
:1018A0008411C8600F4800EB8410008A01B2104810
:1018B00020F814100B4800EB841081880C48103875
:1018C00020F81410074800EB8410C188084818302D
:1018D00020F81410601CC4B2032CC3DD33B030BD3B
:1018E000401C00207C0E00203C100020F600002050
:1018F0003812002001480068704700005C0000209A
:1019000005480068401C0449086008460068401CFF
:1019100008B90020086070475C00002000BFFEE7A7
:101920000EB50121880301F025FB0221012001F001
:10193000E1FC08208DF8080002208DF809008DF8E0
:101940000A0001208DF80B0002A801F05FFA0420C4
:10195000009000208DF8040008208DF8050001207B
:101960008DF806006846FFF7E1FC0EBD00BFFEE7FC
:101970000FB470B50446109DDDE90E12DDED0D1AB1
:10198000B0EE611ADDED0C1AF0EE610ADDED0B1A16
:10199000B0EE610A2B4604F1240001F07DFADDE986
:1019A0000912DDED081AB0EE611ADDED071AF0EE4E
:1019B000610ADDED061AB0EE610A2B4604F16800FB
:1019C00001F06AFA70BC5DF814FB000070B50446C3
:1019D00004EBC40000EB40002E4901EBC000B0F85E
:1019E000B4004FF4FA6191FBF0F004EBC40101EB99
:1019F0004101284A02EBC101B1F9B210484300F598
:101A0000FA7504EBC40000EB4000114601EBC00086
:101A100090F8B000012806D0022811D003281CD06D
:101A2000042834D126E004EBC40101EB4101194A3A
:101A300002EBC101D1F8AC00294602F0E6F826E03D
:101A400004EBC40101EB4101124A02EBC101D1F8E0
:101A5000AC00294602F0DBF819E004EBC40101EB0D
:101A600041010C4A02EBC101D1F8AC00294602F059
:101A7000D0F80CE004EBC40101EB4101054A02EB94
:101A8000C101D1F8AC00294602F0C5F800BF00BF83
:101A900070BD0000401C00200021A248A0F8BC102E
:101AA0004FF47A71A0F81C141E21A0F8CC157821EF
:101AB000A0F8A4160021A0F87C17A0F85418A0F8EC
:101AC000121AA0F8DC1A4FF63001A0F8B41B5A2104
:101AD000A0F88C1C3E21A0F8641D0021A0F8C610BF
:101AE0004FF4FA61A0F826140021A0F8D6150A21B7
:101AF000A0F8AE160021A0F88617A0F85E184FF6E1
:101B0000BA21A0F80E1A0021A0F8E61AA0F8BE1B10
:101B1000A0F8961CA0F86E1DA0F8C8104FF4FA614A
:101B2000A0F828145021A0F8D8150A21A0F8B01662
:101B30000021A0F88817A0F860184FF6BA21A0F885
:101B4000101A0021A0F8E81AA0F8C01BA0F8981CF1
:101B5000A0F8701DA0F8CA1040F6C411A0F82A140D
:101B60000021A0F8DA15A0F8B216A0F88A174FF6EF
:101B7000E861A0F862180021A0F8121AA0F8EA1A89
:101B80004FF23C61A0F8C21B0021A0F89A1CA0F8FB
:101B9000721DA0F8CC104FF47A71A0F82C1400211B
:101BA000A0F8DC15A0F8B416A0F88C176FF063014C
:101BB000A0F864180021A0F8141AA0F8EC1AA0F8F4
:101BC000C41BA0F89C1CA0F8741DA0F8CE104FF404
:101BD000FA71A0F82E140021A0F8DE156421A0F8F7
:101BE000B6160021A0F88E17A0F866184FF67C41B3
:101BF000A0F8161A0021A0F8EE1AA0F8C61BA0F84B
:101C00009E1CA0F8761DA0F8BE1041F27071A0F8DD
:101C10001E146FF04501A0F8CE150021A0F8A616FD
:101C2000A0F87E174FF60C61A0F856180021A0F816
:101C3000061AA0F8DE1AA0F8B61BA0F88E1CA0F8B1
:101C4000661DA0F8C010A0F82014A0F8D015A0F8C8
:101C5000A816A0F88017A0F85818A0F8081AA0F83D
:101C6000E01A6FF06301A0F8B81B0021A0F8901CE7
:101C7000A0F8681DA0F8C2104FF61841A0F8221471
:101C80000021A0F8D215A0F8AA16A0F882176FF0CC
:101C90008101A0F85A180021A0F80A1AA0F8E21A47
:101CA0006421A0F8BA1BB421A0F8921C0021A0F86E
:101CB0006A1DA0F8D2104FF61841A0F83214002186
:101CC000A0F8E215A0F8BA16A0F892176FF08101FB
:101CD000A0F86A180021A0F81A1AA0F8F21A6421D4
:101CE000A0F8CA1B0021A0F8A21CA0F87A1DA0F839
:101CF000D01041F27071A0F830140021A0F8E01566
:101D0000A0F8B816A0F89017A0F86818A0F8181A4C
:101D1000A0F8F01AA0F8C81BA0F8A01CA0F8781D25
:101D200070470000401C002000B5B7B000208DF8BF
:101D3000040001208DF8050001218DF80E108DF8AA
:101D40000F100021ADF8121000208DF808008DF85A
:101D50000910ADF80A109DF8041001EBC10101EB68
:101D60004101CA4A02EBC100D82201A9FEF796FA46
:101D7000D82101A8FEF7ABFA04208DF80400012059
:101D80008DF8050001218DF80E1005218DF80F103A
:101D900000218DF8101040F2DC51ADF81210002037
:101DA0008DF8080000218DF809104FF64451ADF868
:101DB0000A109DF8041001EBC10101EB4101B34A87
:101DC00002EBC100D82201A9FEF768FAD82101A8C8
:101DD000FEF77DFA06208DF8040003208DF805003B
:101DE0004FF080402C9003218DF8B4104FF4877190
:101DF000ADF8B8109DF8041001EBC10101EB4101F1
:101E0000A24A02EBC100D82201A9FEF747FAD82165
:101E100001A8FEF75CFA07208DF8040003208DF876
:101E200005009B482C9003218DF8B4104FF4877166
:101E3000ADF8B8109DF8041001EBC10101EB4101B0
:101E4000924A02EBC100D82201A9FEF727FAD82155
:101E500001A8FEF73CFA08208DF8040003208DF855
:101E600005008B482C9002218DF8B4100021ADF8AC
:101E7000B8109DF8041001EBC10101EB4101834A48
:101E800002EBC100D82201A9FEF708FAD82101A867
:101E9000FEF71DFA09208DF8040001208DF80500D9
:101EA00002218DF80E1001218DF80F104FF47A7178
:101EB000ADF8121000208DF8080000218DF80910EF
:101EC0004FF47A71ADF80A109DF8041001EBC101CE
:101ED00001EB41016D4A02EBC100D82201A9FEF7D6
:101EE000DDF9D82101A8FEF7F2F90B208DF80400E6
:101EF00002208DF8050002218DF80E1003218DF8C7
:101F00000F100021ADF8121000208DF808008DF898
:101F100009104FF4FA71ADF80A109DF8041001EBA6
:101F2000C10101EB4101594A02EBC100D82201A9CC
:101F3000FEF7B4F9D82101A8FEF7C9F90C208DF8F5
:101F4000040000208DF8050002218DF80E100521F7
:101F50008DF80F100021ADF812108DF808008DF8E3
:101F600009107821ADF80A109DF8041001EBC101A9
:101F700001EB4101454A02EBC100D82201A9FEF75D
:101F80008DF9D82101A8FEF7A2F90D208DF80400E3
:101F900002208DF8050002218DF80E1006218DF823
:101FA0000F100021ADF8121000208DF808008DF8F8
:101FB00009104FF47A71ADF80A109DF8041001EB86
:101FC000C10101EB4101314A02EBC100D82201A954
:101FD000FEF764F9D82101A8FEF779F90E208DF8F3
:101FE000040003208DF8050029482C9004218DF869
:101FF000B4104FF48771ADF8B8109DF8041001EBE0
:10200000C10101EB4101214A02EBC100D82201A923
:10201000FEF744F9D82101A8FEF759F90F208DF8F1
:10202000040003208DF805004FF080402C90012122
:102030008DF8B4104FF48771ADF8B8109DF8041006
:1020400001EBC10101EB4101104A02EBC100D822B2
:1020500001A9FEF723F9D82101A8FEF738F90120DC
:1020600000F0C0FBFFF718FD0321002000F012F87C
:102070000521042000F00EF80A21092000F00AF8DA
:102080000A2000F05BF837B000BD0000401C0020C3
:1020900000080040F0B5B3B005460E460027681CA6
:1020A000C4B244E005EBC50202EB4202224B03EB53
:1020B000C20104EBC40202EB420203EBC200D822CD
:1020C000FEF7ECF804EBC40000EB40001A4A02EB08
:1020D000C00000F11001C8226846FEF7DFF804EBEB
:1020E000C40000EB4000144901EBC00CBCE80F0039
:1020F00002F0E7FAC8B1781CC7B204EBC40000EBE9
:1021000040000D4901F8304005EBC50000EB4000F0
:1021100001EBC000C07A3844C1B204EBC40000EB4C
:102120004000054A02EBC000C172601CC4B2B44258
:10213000B8DD33B0F0BD0000401C002030B500EB2E
:10214000C00303EB4303114C04EBC30303F1BC01D5
:1021500000EBC00303EB430304EBC303DB885B42E8
:102160001CB200EBC00303EB4303084D05EBC303B4
:10217000DC80002206E00B885B421BB20B80891CCE
:10218000531CDAB20E2AF6DB30BD0000401C0020E2
:102190002DE9F0410346104D1E46084618E000EBBD
:1021A000C00707EB4707DFF834C00CEBC707D4378D
:1021B00037447C1BB4F800C000EBC00707EB4707AF
:1021C000DFF8188008EBC707A7F8D4C0471CF8B29F
:1021D0009042E4DDBDE8F0813C440020401C00203A
:1021E00000EBC00101EB41011A4A02EBC101897AFF
:1021F000012902D002292AD114E000EBC00101EB31
:102200004101144A02EBC101C97A134A02EB4102AF
:1022100000EBC00101EB41010E4B03EBC101498C06
:10222000118014E000EBC00101EB4101094A02EB0F
:10223000C101C97A094A02EB410200EBC00101EB7E
:102240004101044B03EBC101498C118000BF00BF69
:1022500070470000401C0020681200207A12002005
:1022600030B5B3B000243EE004EBC40000EB400006
:102270001F4A02EBC00000F11001C8226846FEF7B9
:102280000DF804EBC40000EB4000194901EBC00558
:102290000FCD02F016FA20B304EB4400154901EB10
:1022A0004000007978B104EB440001EB4000B0F944
:1022B000021004EBC40000EB40000D4A02EBC0002A
:1022C000C0F898100DE004EB44000A4931F91010F1
:1022D00004EBC40000EB4000054A02EBC000C0F86C
:1022E0009810601CC4B2102CBEDB33B030BD0000AF
:1022F000401C00203E44002030B5B3B005211B48EF
:10230000A0F844104FF47A710187C187002428E0B7
:1023100004EBC40000EB4000154A02EBC00000F1E2
:102320001001C8226846FDF7B9FF04EBC40000EBBA
:1023300040000F4901EBC0050FCD02F0C2F970B1AA
:1023400004EBC40000EB4000094901EBC000B0F809
:10235000980000B204EB4401044A22F81100601C0A
:10236000C4B2102CD4DB012033B030BD3E44002079
:10237000401C002030B5B3B0002420E004EBC400C2
:1023800000EB4000104A02EBC00000F11001C8222F
:102390006846FDF783FF04EBC40000EB40000A49E8
:1023A00001EBC0050FCD02F08CF930B1002004EB39
:1023B0004401064A02EB41010871601CC4B2102CB2
:1023C000DCDB33B030BD0000401C00203E44002068
:1023D00070B52DED0A8BB2B00125002444E104EB69
:1023E000C40000EB4000A44911F83000032876DD5A
:1023F00004EBC40000EB40000A4602EBC00000F111
:102400001001C8226846FDF749FF04EBC40000EB49
:102410004000994901EBC0060FCE02F052F90028A6
:102420005DD004EBC40000EB4000934901EBC00019
:10243000407900287ED104EBC40000EB400001EBA2
:10244000C000407878B104EBC40000EB400001EB21
:10245000C000C18804EBC40000EB4000864A02EBD8
:10246000C000C1834EE004EBC40000EB4000824991
:1024700001EBC0000069A0F5B0509E38002811DDC6
:1024800004EBC40000EB400001EBC000C0884042F8
:1024900001B204EBC40000EB4000774A02EBC0003D
:1024A000C1832FE004EBC40000EB4000724901EB54
:1024B000C0000069A0F5B0509E38002810D504EB8C
:1024C000C40000EB400001EBC000C18804EBC40075
:1024D00000EB4000684A02EBC000C18312E0C1E09B
:1024E00004EBC40000EB4000634901EBC000808AAC
:1024F00001B204EBC40000EB40005F4A02EBC000F5
:10250000A0F8BA1004EBC40101EB41015A4A02EBF6
:10251000C101B1F91E00FEF705F841EC1B0BB0EE4E
:102520004B0AF0EE6B0A02F0F1F8B0EE40AAF0EEC2
:1025300060AA00E086E09FED510B53EC102B51ECAC
:102540001A0BFDF77DFF41EC180B04EBC40101EB06
:102550004101494A02EBC101B1F91C00FDF7E2FF5C
:1025600041EC1C0BB0EE4C0AF0EE6C0A02F0CEF817
:10257000B0EE40AAF0EE60AA04EBC40101EB410109
:102580003D4A02EBC101B1F91E00FDF7CBFF41EC62
:102590001C0BB0EE4C0AF0EE6C0A02F0B7F8B0EE8D
:1025A00040BAF0EE60BA53EC1A2B51EC1B0BFDF75E
:1025B00041FF53EC182BFEF711F843D204EBC40093
:1025C00000EB40002C4901EBC0000089401C81B2A7
:1025D00004EBC40000EB4000274A02EBC00001817D
:1025E00004EBC40000EB4000114601EBC000008981
:1025F000C82827DD012104EBC40000EB400002EBFA
:10260000C000417104EBC40000EB4000114601EB37
:10261000C000808A01B204EBC40000EB400002EB72
:10262000C000A0F8BA10002104EBC40000EB400089
:1026300002EBC000C18304EBC40000EB400002EBDE
:10264000C0000181204600F01DF82046FFF7C8FDBC
:1026500004EBC40000EB4000074901EBC0004079E7
:1026600000B90025601CC4B2102CFFF6B8AE284695
:1026700032B0BDEC0A8B70BD401C002033333333C5
:102680003333D33F10B5044604EBC40000EB4000E5
:10269000534901EBC000407B012863D104EBC40126
:1026A00001EB41014E4A02EBC10191ED061AB8EE71
:1026B000C11AF0EE410A04EBC40101EB410102EB47
:1026C000C10191ED051AB8EEC11AB0EE410A04EB52
:1026D000C40101EB410102EBC10101F1240007F04B
:1026E000C7FDBDEEC00A10EE100A01B204EBC40033
:1026F00000EB40003A4A02EBC000C18304EBC40186
:1027000001EB410102EBC101B1F91E1001EE101AFB
:10271000B8EEC11AF0EE410A04EBC40101EB41012D
:1027200002EBC101B1F91C1001EE101AB8EEC11A8A
:10273000B0EE410A04EBC40101EB410102EBC1011F
:1027400001F1680007F094FDBDEEC00A10EE100A1A
:1027500001B204EBC40000EB4000214A02EBC000D0
:1027600041843CE004EBC40000EB40001C4901EB59
:10277000C000407B98BB04EBC40101EB4101184A47
:1027800002EBC101B1F91E1001EE101AB8EEC11A28
:10279000F0EE410A04EBC40101EB410102EBC1017F
:1027A000B1F91C1001EE101AB8EEC11AB0EE410AD0
:1027B00004EBC40101EB410102EBC10101F168002E
:1027C00007F056FDBDEEC00A10EE100A01B204EB90
:1027D000C40000EB4000024A02EBC000418410BD7F
:1027E000401C002010B594B0044600208DF8240051
:1027F0009FEDEA0A8DED0F0A9FEDE90A8DED100AB3
:102800009FEDE80A8DED110A47F2305112911391B4
:102810009FEDE20A8DED0A0A9FEDE10A8DED0B0AAC
:102820009FEDE00A8DED0C0A0D910E9120220CA96E
:1028300068460894FDF732FDDB4809A90EC9FFF789
:1028400097F804208DF82400B3EE0E0A8DED0F0AE0
:102850009FEDD60A8DED100A9FEDD50A8DED110A78
:1028600041F2707112914FF4FA711391B3EE040AB0
:102870008DED0A0A9FEDCF0A8DED0B0A9FEDCC0A74
:102880008DED0C0A09010D9109110E9120220CA960
:1028900068460894FDF702FDC74809A90EC9FFF76D
:1028A00067F806208DF824009FEDC10A8DED0F0A10
:1028B0009FEDBF0A8DED100A9FEDBD0A8DED110A47
:1028C0000021129113919FEDB50A8DED0A0A9FED3B
:1028D000B40A8DED0B0A9FEDB30A8DED0C0A4FF48F
:1028E0007A710D910E9120220CA968460894FDF78B
:1028F000D5FCB24809A90EC9FFF73AF807208DF8B0
:1029000024009FEDAB0A8DED0F0A9FEDA90A8DED16
:10291000100A9FEDA70A8DED110A00211291139163
:102920009FED9E0A8DED0A0A9FED9D0A8DED0B0A23
:102930009FED9C0A8DED0C0A47F230510D910E91DE
:1029400020220CA968460894FDF7A8FC9B48D830C3
:1029500009A90EC9FFF70CF808208DF824009FED97
:10296000940A8DED0F0A9FED920A8DED100A9FEDEE
:10297000900A8DED110A0021129113919FED870AA3
:102980008DED0A0A9FED860A8DED0B0A9FED850AF3
:102990008DED0C0A47F230510D910E9120220CA9B9
:1029A00068460894FDF77AFC854809A90EC9FEF728
:1029B000DFFF09208DF82400B3EE040A8DED0F0A25
:1029C0009FED780A8DED100A9FED7E0A8DED110ABC
:1029D0004FF4FA61129189101391B3EE040A8DED50
:1029E0000A0A9FED6F0A8DED0B0A9FED760A8DEDB9
:1029F0000C0A41F294110D914FF4FA710E912022BC
:102A00000CA968460894FDF749FC6D48D83009A91F
:102A10000EC9FEF7ADFF0B208DF824009FED6A0A6A
:102A20008DED0F0A9FED620A8DED100A9FED600A91
:102A30008DED110A41F6583112914FF4FA7113914C
:102A4000B3EE040A8DED0A0A9FED550A8DED0B0ACF
:102A50009FED570A8DED0C0A41F288310D9140F23D
:102A6000DC510E9120220CA968460894FDF716FC53
:102A7000564809A90EC9FEF77BFF0C208DF82400EB
:102A8000B2EE0E0A8DED0F0A9FED490A8DED100A88
:102A90009FED470A8DED110A4FF47A71129147F2BA
:102AA000305113919FED4A0A8DED0A0A9FED3C0AC1
:102AB0008DED0B0A9FED3B0A8DED0C0A0D910E91E9
:102AC00020220CA968460894FDF7E8FB3F48D8305F
:102AD00009A90EC9FEF74CFF0D208DF824009FEDCB
:102AE0003D0A8DED0F0A9FED320A8DED100A9FED24
:102AF000300A8DED110A40F6C41112914FF47A712B
:102B00001391B3EE040A8DED0A0A9FED290A8DEDAB
:102B10000B0A9FED270A8DED0C0A41F658310D91F5
:102B200041F270710E9120220CA968460894FDF7BD
:102B3000B5FB294809A90EC9FEF71AFF0E208DF82A
:102B400024009FED1B0A8DED0F0A9FED190A8DEDF4
:102B5000100A9FED170A8DED110A002112911391B1
:102B60009FED0E0A8DED0A0A9FED0D0A8DED0B0A01
:102B70009FED0C0A8DED0C0A47F230510D910E912C
:102B800020220CA968460894FDF788FB1248D8302B
:102B900009A90EC9FEF7ECFE14B010BD000070428A
:102BA0000AD7233CCDCCCC3D401C0020CDCC4C3EA4
:102BB000000000006F12833AA01F00205021002067
:102BC000002300200AD7A33C0000B442882500203F
:102BD0000000A0420000964238270020B4B0F1E087
:102BE0004FF0FF3333AA4FF4800100200BF084FD37
:102BF0000546012DF3D17448007820B9FFF794F809
:102C000001207149087000241CE004EBC40000EBB3
:102C100040006E4A02EBC00000F11001C822684675
:102C2000FDF73CFB04EBC40000EB4000674901EBFF
:102C3000C0060FCE01F045FD10B92046FEF7C6FED6
:102C4000601CC4B2102CE0DB339800F48000002834
:102C50000CD05F4800780028FAD05E48007830B980
:102C600000F068FBFFF7B4FB5A4908709EE002F0E1
:102C70001DFD002497E004EBC40000EB4000534925
:102C800011F8300003287CDD04EBC40000EB4000A9
:102C90000A4602EBC00000F11001C8226846FDF7A9
:102CA000FDFA04EBC40000EB4000484901EBC0060C
:102CB0000FCE01F006FD002873D0012104EBC40003
:102CC00000EB4000414A02EBC000417304EBC4003A
:102CD00000EB4000114601EBC000007B58B33D48BB
:102CE000007840B3002104EBC40000EB400002EB8D
:102CF000C000417304EBC40000EB4000114601EB3F
:102D0000C000816904EBC40000EB400002EBC0008E
:102D10004069081A64280FDD04EBC40000EB400092
:102D2000114601EBC000C18904EBC40000EB400078
:102D300002EBC000C1832EE004EBC40000EB4000B6
:102D4000224901EBC000816904EBC40000EB4000A4
:102D50001E4A02EBC0004069081A642812DA04EB2C
:102D6000C40000EB4000114601EBC000C0894042A6
:102D700001B204EBC40000EB400002EBC000C183D1
:102D800009E00EE0012104EBC40000EB40000F4A13
:102D900002EBC00041732046FFF774FC2046FFF7AA
:102DA0001FFA601CC4B2102CFFF665AF002301228D
:102DB000D105094800680BF0B7FA00200AF0C8FAFC
:102DC000064908600CE70000EC040020401C0020CD
:102DD000F6000020ED04002030000020E804002070
:102DE00001B2084AB2F834240A4413B2054AA2F8E0
:102DF0003434B2F80C250A4413B2024AA2F80C3556
:102E000070470000401C00207047000070B5002192
:102E100000230F22C4781CB3174C246804F4E06428
:102E2000C4F5E064C4F30721C1F10404E3B20A412C
:102E300044789C40E1B28478144021430C07210E71
:102E40000E4C05786155047804F01F050124AC4050
:102E500005786D11AD0005F1E025C5F8004109E0E8
:102E6000047804F01F050124AC40054D0678761166
:102E700045F8264070BD00000CED00E000E400E0E5
:102E800080E100E002490143024A116070470000FE
:102E90000000FA050CED00E02DE9F0412DED048B6A
:102EA0000446B0EE408AF0EE608AB0EE419A0E46DB
:102EB00017461D46C5B91548E063154820643A46D3
:102EC0003146B0EE491AF0EE680AB0EE480A2046E4
:102ED000E36B9847B0EE491AF0EE680AB0EE480A84
:102EE0002046216C88470CE00848E0633A463146AA
:102EF000B0EE491AF0EE680AB0EE480A2046E36BDD
:102F00009847BDEC048BBDE8F081000071A3000878
:102F10008DA3000829B1064A12680243044B1A60C7
:102F200004E0034A12688243014B1A6070470000B4
:102F30003038024029B1064A12680243044B1A6035
:102F400004E0034A12688243014B1A607047000094
:102F50004038024029B1064A12680243044B1A6005
:102F600004E0034A12688243014B1A607047000074
:102F70002038024029B1064A12680243044B1A6005
:102F800004E0034A12688243014B1A607047000054
:102F90004438024029B1064A12680243044B1A60C1
:102FA00004E0034A12688243014B1A607047000034
:102FB00024380240F0B5002100220024022500261A
:102FC0000223324F3F6807F00C0121B1042905D0DC
:102FD000082937D105E02E4F076036E02D4F0760F6
:102FE00033E02A4F3F1F3F68C7F38056274F3F1FEC
:102FF0003F6807F03F036EB1264FB7FBF3F7DFF8EA
:103000008CC0ACF1040CDCF800C0CCF3881C07FBCE
:103010000CF40CE01E4FB7FBF3F7DFF870C0ACF117
:10302000040CDCF800C0CCF3881C07FB0CF4174F31
:103030003F1F3F68C7F301477F1C7D00B4FBF5F7D6
:10304000076002E0124F076000BF00BF0F4F3F68EC
:1030500007F0F0010909104F7A5C0768D740476014
:103060000A4F3F6807F4E051890A0B4F7A5C4768C2
:10307000D7408760054F3F6807F46041490B064F12
:103080007A5C4768D740C760F0BD0000083802404E
:103090000024F400001BB700C808002021B10288FA
:1030A00042F04002028004E002884FF6BF731A40EB
:1030B0000280704700B587B001212020FFF72AFF6A
:1030C00001210805FFF756FF052207212148FEF7D9
:1030D000EFFA052208211F48FEF7EAFA0522092126
:1030E0001C48FEF7E5FA4FF46070059002208DF859
:1030F000180003208DF8190000208DF81A008DF8B3
:103100001B0005A91348FEF78BFA0020ADF800005C
:103110004FF48270ADF802000020ADF80400ADF865
:103120000600ADF808004FF40070ADF80A00182052
:10313000ADF80C000020ADF80E000A20ADF810002C
:103140006946054800F00AF801210348FFF7A6FF89
:1031500007B000BD001402400050014010B500222D
:10316000028802F441520B884C8823438C88234305
:10317000CC8823430C8923434C8923438C892343E4
:10318000CC8923431A430280838B4FF2FF74234080
:1031900083830B8A038210BD70B505460C464D48EB
:1031A000007808B906F02EFF4B48854268D12068A8
:1031B000A0F2012030B1012805D0022804D0032854
:1031C00032D102E000BF00BF00BF2078401E43495B
:1031D00008704348097800EB8110816940483F4AF4
:1031E000127800EB82108069401C3D4A3B4B1B78F3
:1031F00002EB83129061322908D83949374A127894
:1032000001EB8210214604F0C7FF07E03449334A3E
:10321000127801EB8210214604F04AF92F4909780F
:10322000481C04F085F900E000BF00BF2078401E74
:103230002C4908702C48097800EB811081692A48D4
:10324000284A127800EB82108069401C264A254BE0
:103250001B7802EB83129061322908D82249214A57
:10326000127801EB8210214604F096FF31E01E49EE
:103270001C4A127801EB8210214604F019F928E06B
:103280002078401E194908701948097800EB811010
:1032900081691748154A127800EB82108069401C3A
:1032A000134A124B1B7802EB83129061322908D823
:1032B0000F490E4A127801EB8210214604F06CFF90
:1032C00007E00B49094A127801EB8210214604F00D
:1032D000EFF870BD7400002000640040760000200C
:1032E0007C090020750000207C0E00207700002063
:1032F0003C10002030B500228B071C0F0F2303FA6F
:1033000004F20B4B8C1053F824309343084C8D106F
:1033100044F8253023468C1053F824308C07240FB2
:1033200000FA04F42343024C8D1044F8253030BDDC
:103330000838014064210148416170472C22002077
:103340000CB50020019000904148006840F48030A6
:103350003F49086000BF3E48006800F4003000901C
:103360000198401C0190009818B90198B0F5A04F41
:10337000F1D13748006800F4003010B1012000900E
:1033800001E0002000900098012860D130484030D2
:10339000006840F080502E49403108602D48006898
:1033A00040F440402B49086029480830006828490B
:1033B000083108600846006840F40040086008468C
:1033C000006840F4A05008602348091F0860081FE7
:1033D000006840F08070091F086000BF1C4800684A
:1033E00000F000700028F9D01A48006840F48030DE
:1033F0001849086000BF1748406800F48030002872
:10340000F9D01448006840F400301249086000BF49
:103410001048406800F400300028F9D040F20570F0
:103420000E4908600A480830006820F00300084987
:10343000083108600846006840F00200086000BFDC
:1034400003480830006800F00C000828F8D10CBDD3
:103450000038024000700040062D4008003C024049
:10346000012080F3138800BF00BFBFF34F8F0748D0
:10347000006800F4E06006490843001D0349086045
:10348000BFF34F8F00BF00BFFEE700000CED00E070
:103490000000FA05042808D14FF0E021096941F045
:1034A00004014FF0E022116107E04FF0E0210969CB
:1034B00021F004014FF0E0221161704710B50BF0CC
:1034C00057F8012801D00AF0CBFB10BD10B5044617
:1034D0006FF00400FFF7DEFFE11704EB5171C1F359
:1034E000C701074A11701046007800EB4001C1EB9C
:1034F000C0104FF6FF7101EAC0000249088010BDFC
:10350000C2080020C408002010B51548006840F427
:103510007000134908601348006840F00100114929
:10352000086000200F49083108600E4800680E4905
:1035300008400C4908600D48091D0860081F006814
:1035400020F48020091F0860002006490C31086023
:10355000FFF7F6FE4FF0006001498039086010BDAA
:1035600088ED00E000380240FFFFF6FE1030002436
:103570001CB50548022100238022CDE9001003A1DB
:1035800005480AF0A1FE1CBD14000020737461728E
:10359000745F7461736B000045C4000830B58BB074
:1035A00005460C4601210846FFF7B4FC01210846F8
:1035B000FFF7C0FC012211463548FEF779F80122D9
:1035C00000213348FEF774F8012203213048FEF74A
:1035D0006FF8012202212E48FEF76AF80F200990A9
:1035E00002208DF8280001208DF82B0000208DF896
:1035F0002A0003208DF8290009A92548FEF710F8B4
:103600000795A0B2ADF818000020ADF82000ADF885
:103610001A0006A94FF0804000F000FB6020ADF8D2
:1036200004000020ADF810000120ADF806004FF4B2
:103630007A70039001A9C00600F09CF901A94FF02F
:10364000804000F0DFF901A94FF0804000F03AFA25
:1036500001A94FF0804000F08FFA0821C80600F061
:10366000C7F90821C80600F01FFA0821C80600F0B3
:1036700079FA0821C80600F0BBFA0121880700F09A
:1036800011F90121880700F04EF90BB030BD0000A0
:103690000000024010B50121054800F050F908B1C2
:1036A000FEF72EF90121024800F03AF910BD0000A2
:1036B0000004004030B58BB005460C4601210820BF
:1036C000FFF728FC01210420FFF734FC02220F2120
:1036D0002F48FDF7EDFF02220E212D48FDF7E8FFF0
:1036E00002220D212A48FDF7E3FF02220C2128487F
:1036F000FDF7DEFF4FF47040099002208DF828009E
:1037000001208DF82B0000208DF82A0003208DF871
:10371000290009A91E48FDF783FF0795A0B2ADF85F
:1037200018000020ADF82000ADF81A0006A91948CD
:1037300000F074FA6020ADF804000020ADF810002D
:103740000120ADF806004FF47A70039001A91148EA
:1037500000F012FA01A90F4800F0B4F901A90D48D0
:1037600000F050F908210B4800F042FA08210948FE
:1037700000F0F8F90821074800F096F90121054802
:1037800000F090F80121034800F0CDF80BB030BDF7
:10379000000C02400008004030B58BB005460C46D6
:1037A00001210802FFF7B6FB01218020FFF7B2FBE1
:1037B00001210820FFF7BEFB022200213648FDF759
:1037C00077FF02220A213548FDF772FF02220B2102
:1037D0003248FDF76DFF02220C213048FDF768FFEB
:1037E0000120099002208DF8280001208DF82B007F
:1037F00000208DF82A0003208DF8290009A9264809
:10380000FDF70EFF4FF4E050099009A92348FDF79A
:1038100007FF0795A0B2ADF818000020ADF8200012
:10382000ADF81A0006A91E4800F0F8F96020ADF8BE
:1038300004000020ADF810000120ADF806004FF4A0
:103840007A70039001A9164800F096F901A914486E
:1038500000F038F901A9124800F0D4F801A9104885
:1038600000F088F808210E4800F0C2F908210C4841
:1038700000F078F908210A4800F016F908210848F4
:1038800000F0B6F80121064800F00CF801210448C8
:1038900000F049F80BB030BD00200240001C02408F
:1038A000000C004021B1028842F08002028004E056
:1038B00002884FF67F731A40028070477FB5054635
:1038C0000C4601210220FFF735FB0295ADF80440BC
:1038D0000020ADF80C00ADF8060001A90F4800F07B
:1038E0009DF9012211460D4800F03AF801210B48DC
:1038F00000F016F81D208DF8000000208DF8010062
:103900008DF8020001208DF803006846FFF77EFA6B
:103910000121024800F007F87FBD000000040040CC
:10392000CA430282704721B1028842F0010202803C
:1039300004E002884FF6FE731A400280704730B5EB
:103940000246002000230024158A05EA0103958918
:1039500005EA010413B10CB1012000E0002030BDE4
:103960001AB183890B43838102E083898B4383816E
:103970007047000070B5002400220023058C4FF62C
:10398000FE7635400584028C8388048B4FF68F7554
:103990002C40B51E2C400D882C43751E2A408D8965
:1039A0002A434D882A43104DA84202D00F4DA84209
:1039B00013D14FF6F7752A40CD892A434FF6FB7590
:1039C0002A408D882A434FF6FF652B404FF6FF555E
:1039D0002B400D8A2B434D8A2B43838004838D68B3
:1039E0004563028470BD00000000014000040140F6
:1039F0000A460021018B4FF6F773194011430183EA
:103A00007047000070B5002400220023058C4FF69B
:103A1000EF7635400584028C8388048B48F6FF7569
:103A20002C404FF6FF452C400D884FF6FF7606EAF6
:103A300005252C434FF6DF752A408D8906EA0515CA
:103A40002A434D8806EA05152A43154DA84202D09F
:103A5000144DA8421DD14FF67F752A40CD894FF6EF
:103A6000FF7606EA05152A434FF6BF752A408D8872
:103A700006EA05152A434FF6FF352B404FF2FF7536
:103A80002B400D8A06EA85052B434D8A06EA8505FB
:103A90002B43838004838D688563028470BD00009E
:103AA00000000140000401400A460021018B4FF252
:103AB000FF7319404FF6FF7303EA02231943018392
:103AC0007047000070B5002400220023058C4FF6DB
:103AD000FF6635400584028C8388848B4FF68F7592
:103AE0002C404FF6FC752C400D882C434FF6FF55AB
:103AF0002A408D894FF6FF7606EA05252A434D8830
:103B000006EA05252A43154DA84202D0144DA842C5
:103B10001DD14FF2FF752A40CD894FF6FF7606EA98
:103B200005252A434FF6FF352A408D8806EA0525EC
:103B30002A434EF6FF752B404DF6FF752B400D8A3C
:103B400006EA05152B434D8A06EA05152B438380AB
:103B500084838D68C563028470BD0000000001404D
:103B6000000401400A460021818B4FF6F77319408B
:103B7000114381837047000070B5002200230024A8
:103B8000058C4EF6FF7635400584038C8488828B45
:103B900048F6FF752A404FF6FF452A400D884FF63C
:103BA000FF7606EA05252A434DF6FF752B408D89E1
:103BB00006EA05352B434D8806EA05352B430A4DA9
:103BC000A84202D0094DA84208D14BF6FF752C40FF
:103BD0000D8A4FF6FF7606EA85152C438480828392
:103BE0008D680564038470BD00000140000401403D
:103BF0000A460021818B4FF2FF7319404FF6FF7385
:103C000003EA02231943818370474163704781634C
:103C10007047C1637047016470470000002202884A
:103C2000184B98420ED0184B98420BD0B0F1804FF1
:103C300008D0164B984205D0154B984202D0154B30
:103C4000984204D14FF68F731A404B881A43124B97
:103C5000984207D0114B984204D04FF6FF431A40C8
:103C60000B891A4302804B68C3620B880385054B9E
:103C7000984202D0044B984201D18B7A03860123EB
:103C800083827047000001400004014000040040AE
:103C900000080040000C00400010004000140040EC
:103CA00000B587B001211020FFF734F90121C807C2
:103CB000FFF740F90121C807FFF74CF900214FF049
:103CC0000040FFF747F9082200212748FDF7F0FCE4
:103CD000082201212448FDF7EBFC03200590022077
:103CE0008DF8180000208DF81A008DF81B000320B5
:103CF0008DF8190005A91C48FDF792FC1B4800F03F
:103D00009BFB4FF4E13001900020ADF80800ADF8C6
:103D10000A00ADF80C000C20ADF80E000020ADF844
:103D2000100001A9114800F05BFC10210F4800F0C1
:103D300055FB012240F224410C4800F02CFC0121EB
:103D40000A4800F063FB53208DF8000005208DF831
:103D5000010000208DF8020001208DF80300684664
:103D6000FFF754F807B000BD00100240007C00408F
:103D700010B51021084800F0D7FB60B140F2244193
:103D8000054800F0DEFB30B1034800F093FC102141
:103D9000014800F023FB10BD007C004000B587B057
:103DA00001210220FFF7B6F801211020FFF7E2F809
:103DB00001211020FFF7EEF800211020FFF7EAF8AC
:103DC000072211462848FDF773FC80200590022049
:103DD0008DF8180000208DF81A0001208DF81B00C6
:103DE00003208DF8190005A91F48FDF719FC1F488D
:103DF00000F022FB1E4801900020ADF80800ADF84D
:103E00000A004FF48060ADF80C000420ADF80E00FD
:103E10000020ADF8100001A9144800F0E1FB0121D9
:103E2000124800F0F3FA1021104800F0D7FA1021E0
:103E30000E4800F0DCFA012240F224410B4800F069
:103E4000AAFB25208DF8000005208DF80100002038
:103E50008DF8020001208DF803006846FEF7D6FFBA
:103E600000F008F807B000BD000402400010014057
:103E7000A086010000B58FB001218805FFF74AF840
:103E8000012240211F4800F0CDFA1F48FDF74CF9F0
:103E90004FF0006000901B48001D01901B480290ED
:103EA0000020039024200490002005904FF48060AF
:103EB00006900020079008904FF4807009904FF40E
:103EC00040300A9000200B9003200C9000200D90B1
:103ED0000E9069460C48FDF7F9F900220B49243190
:103EE0000948FDF7D8F901210748FDF7C9F9002174
:103EF0000548FDF70DF901210348FDF709F90FB059
:103F000000BD00000010014040640240B4440020A5
:103F100010B51021364800F007FB002867D040F2AA
:103F20002441334800F00DFB002860D0304800F0F9
:103F3000C1FB3048FDF7BFF940BB00212D48FDF71C
:103F4000E7F82C48FDF7B3F9C0F124002A490880AE
:103F500008460088242806D12849294807F058F93E
:103F6000052003F0E5FA24212248FDF7DBF921487A
:103F7000006840F400201F49086022491D48FDF7F1
:103F8000ADF801211B48FDF7C3F828E001211948CD
:103F9000FDF7BEF81C48FDF78AF9C0F12400164968
:103FA000088008460088242807D114492431144881
:103FB00007F02EF9052003F0BBFA24210D48FDF788
:103FC000B1F90C48006820F400200A4908600D4946
:103FD0000848FDF783F801210648FDF799F81021FC
:103FE000034800F0FBF91021014800F000FA10BD71
:103FF0000010014040640240C6080020B444002084
:104000009E440020000030104060024000B587B0A0
:1040100001210820FEF77EFF01218804FEF78AFFB8
:1040200001218804FEF796FF00214FF48020FEF75F
:1040300091FF072208212948FDF73AFB07220921B1
:104040002648FDF735FB4FF44070059002208DF8AF
:10405000180000208DF81A008DF81B0003208DF841
:10406000190005A91D48FDF7DBFA1D4800F0E4F929
:104070004FF4E13001900020ADF80800ADF80A00DF
:10408000ADF80C000C20ADF80E000020ADF81000CB
:1040900001A9134800F0A4FA1021114800F09EF97C
:1040A000012240F224410E4800F075FA01210C482B
:1040B00000F0ACF927208DF8000005208DF80100F4
:1040C00000208DF8020001208DF803006846FEF7FD
:1040D0009DFE00F007F807B000BD0000000C024094
:1040E0000048004000B58FB001214805FEF712FFDF
:1040F000012240211E4800F095F91E48FDF714F8F2
:104100004FF0006000901A48001D01901A4802907C
:10411000002003904FF480600490002005904FF43D
:104120008060069000200790089009904FF440307E
:104130000A9000200B9003200C9000200D900E9010
:1041400069460C48FDF7C2F800220C490948FDF702
:10415000A2F801210748FDF793F800210548FCF774
:10416000D7FF01210348FCF7D3FF0FB000BD0000CB
:1041700000480040286002402045002020470020E1
:104180001CB5002001901021164800F0CDF938B37D
:1041900040F22441134800F0D4F908B3114800F06C
:1041A00089FA10210F4800F019F90F2003F0C0F927
:1041B0000D480068A0B101A8002301220821009049
:1041C000094800680AF032F9019848B1019838B1FD
:1041D0004FF0805005490860BFF34F8FBFF36F8FDA
:1041E0001CBD0000004800405400002004ED00E029
:1041F00000B587B001214020FEF78CFE0121202070
:10420000FEF7B8FE01218805FEF784FE012120207B
:10421000FEF7C0FE00212020FEF7BCFE0822092187
:104220002948FDF745FA08220E212748FDF740FAF4
:104230004FF48440059002208DF8180000208DF87E
:104240001A0001208DF81B0003208DF8190005A924
:104250001D48FDF7E5F91D4800F0EEF84FF4E13098
:1042600001900020ADF80800ADF80A00ADF80C0090
:104270000C20ADF80E000020ADF8100001A9134885
:1042800000F0AEF91021114800F0A8F8012240F228
:1042900024410E4800F07FF901210C4800F0B6F8E7
:1042A00047208DF8000005208DF8010000208DF8D2
:1042B000020001208DF803006846FEF7A7FD00F01C
:1042C00007F807B000BD00000018024000140140CC
:1042D00000B58FB001218805FEF71CFE01224021A8
:1042E0001E4800F09FF81E48FCF71EFF4FF02060AC
:1042F00000901A48001D01901A4802900020039077
:104300004FF400700490002005904FF480600690F8
:1043100000200790089009904FF440300A90002048
:104320000B9003200C9000200D900E9069460C48D5
:10433000FCF7CCFF00220C490948FCF7ACFF012137
:104340000748FCF79DFF00210548FCF7E1FE01212D
:104350000348FCF7DDFE0FB000BD00000014014073
:104360002864024020490020204D00201CB5002078
:1043700001901021164800F0D7F838B340F22441DC
:10438000134800F0DEF808B3114800F093F910214B
:104390000F4800F023F80E2003F0CAF80D4800681B
:1043A000A0B101A800230122022100900948006861
:1043B0000AF03CF8019848B1019838B14FF08050AC
:1043C00005490860BFF34F8FBFF36F8F1CBD00001E
:1043D000001401404C00002004ED00E001F40072E4
:1043E000B2F5007F00D100BFCA430280704710B50C
:1043F0000022002340F66A14A14200D100BF0A1235
:1044000001249440A3B2DC43048010BD21B1828911
:1044100042F40052828104E082894DF6FF731A4013
:10442000828170471AB1838A0B43838202E0838AB8
:104430008B4383827047000010B5044632488442A3
:1044400008D101211020FEF7A5FD00211020FEF764
:10445000A1FD57E02D48844209D101214804FEF70F
:1044600079FD00214FF40030FEF774FD4AE0284842
:10447000844209D101218804FEF76CFD00214FF42C
:104480008020FEF767FD3DE02248844209D10121EA
:10449000C804FEF75FFD00214FF40020FEF75AFD2F
:1044A00030E01D48844209D101210805FEF752FD84
:1044B00000214FF48010FEF74DFD23E017488442A1
:1044C00008D101212020FEF765FD00212020FEF704
:1044D00061FD17E01248844209D101218807FEF7E7
:1044E00039FD00214FF08040FEF734FD0AE00D4811
:1044F000844207D101214005FEF72CFD0021600513
:10450000FEF728FD10BD00000010014000440040EF
:1045100000480040004C00400050004000140140A2
:1045200000780040007C004002460020B1F5007F8A
:1045300000D100BF13880B400BB1012000E0002028
:10454000704770B50246002400230025002040F685
:104550006A16B14200D100BFC1F3421501F01F033A
:10456000012606FA03F3012D02D19689334006E0B5
:10457000022D02D1168A334001E0968A33400C1294
:10458000012606FA04F41688344013B10CB1012058
:1045900000E0002070BDF0B5034600240026002591
:1045A000002040F66A17B94200D100BF1846C1F397
:1045B000421401F01F06012707FA06F5012C01D16C
:1045C0000C3004E0022C01D1103000E014301AB19C
:1045D00007682F43076002E00768AF430760F0BD3C
:1045E0002DE9FF4705460E460024A14600BFA04620
:1045F000B08900B100BF2C8A24F44054F0880443F1
:104600002C82AC8941F20C608443B0883189084324
:10461000718908430443AC81AC8A24F44074B089A6
:104620000443AC826846FEF7C5FC2048854202D0B0
:104630001F48854202D1DDF80C9001E0DDF80890BA
:10464000A88900F4004040B109EBC90000EB091053
:1046500031684900B0FBF1F707E009EBC90000EB56
:10466000091031688900B0FBF1F76420B7FBF0F066
:1046700004012009642101FB1078A88900F400409E
:1046800040B1322000EBC800B0FBF1F000F00700B1
:10469000044308E0322000EB08106421B0FBF1F085
:1046A00000F00F0004432C81BDE8FF87001001409B
:1046B0000014014001468888C0F30800704700BF1D
:1046C000FEE70FB49DF8010020B1012803D00228B5
:1046D00005D101E000BF00BF012004B070470020F9
:1046E000FBE700000FB4084B10B504A902AA039819
:1046F00000F026F8044602A9002000F0FDF820464C
:1047000010BC5DF814FB0000F94800082DED020B09
:10471000019820F0004001909DED000B02B0704721
:1047200002E008C8121F08C1002AFAD1704770477A
:10473000002001E001C1121F002AFBD170470000D8
:104740002DE9FF4F8BB09A460F460546002606E03E
:1047500025280BD052460D9990476D1C761C287861
:104760000028F5D10FB03046BDE8F08F0024A046F8
:104770000122604900E0044315F8013F203B02FAA2
:1047800003F00842F7D128782E2817D115F8010F29
:1047900044F004042A280ED06FF02F022878A0F1EC
:1047A000300109290AD808EB880102EB410100EB2E
:1047B00001086D1CF2E757F8048B6D1C28786928F6
:1047C0003ED006DC0028CDD063280BD0642804D16D
:1047D00036E0732810D075284BD052460D9990477B
:1047E000761C85E017F8040B8DF8000000208DF88A
:1047F0000100E946012003E057F8049B4FF0FF3029
:1048000061074FF0000401D40AE0641C44450DDA4E
:104810008442FADB19F804100029F6D106E0641C82
:104820008442FCDB19F804100029F8D1264404E086
:1048300019F8010B52460D999047641EF8D257E0C3
:1048400001CF4FF00A0B002802DA40422D2102E08E
:10485000210504D52B218DF82410012103E0E10767
:1048600005D02021F7E70DF1200908910CE0002187
:10487000F9E701CF4FF00A0BF9E75946FBF7C6FEFF
:1048800001F1300209F8012D0028F6D1ADEB090045
:1048900000F1200B600701D44FF00108D84502DD7C
:1048A000A8EB0B0000E000208046002406E009A8E9
:1048B0005246005D0D999047641C761C089884420E
:1048C000F5DB04E0302052460D999047761CB8F194
:1048D0000001A8F10108F5DC05E019F8010B5246CA
:1048E0000D999047761CBBF10001ABF1010BF4DC94
:1048F0006D1C34E7092801000A68531C0B60107016
:104900007047D0ED000A00EE101AB8EEC00AF4EEBF
:10491000C00AF1EE10FA05DD00EE101AB8EEC00A7A
:1049200080ED000AD0ED000A4A4200EE102AB8EEEF
:10493000C00AF4EEC00AF1EE10FA06D24A4200EEC6
:10494000102AB8EEC00A80ED000A704770B505461F
:104950000C4600260DB1022C00D870BDA11E0648E1
:104960000288284603F058FA0646A01E2E54310A43
:10497000601E295400BFF0E7F804002070B505461A
:104980000C4600260DB1022C00DC70BD601E81B209
:10499000FF22284603F05AFA0646601E2E5400BF36
:1049A000F3E7000010B51F48007A032802D1012068
:1049B0001D4908701D48C07838B900201C4908708E
:1049C00008211C48FCF797FE2BE01948007830B905
:1049D00001201749087000201349087021E014488D
:1049E000007801280CD11048007848B10D48007AB1
:1049F000022805D10E49087000200B49087010E00C
:104A00000B48007802280CD10748007848B10548C7
:104A1000007A022805D101200549087000200249CA
:104A2000087010BD9E440020CD0400205C160020BC
:104A3000CC0400200008024010B5FFF7B3FF144873
:104A4000C07848B91348007830B102201249087084
:104A500008211248FCF74FFE11480078012808D1C0
:104A60000C4908700C49087008210C48FCF745FEF9
:104A70000DE00B480078022809D101200549087093
:104A800000200549087008210448FCF736FE10BDD7
:104A90005C160020C5040020C40400200008024069
:104AA000CC04002001200249487002490870704778
:104AB0005C160020FC00002005480078042803D183
:104AC000044890F8680008B1002070470120FCE716
:104AD000F60000204413002010B530210548FBF7F4
:104AE000F6FB002003494870087108210248FCF7D2
:104AF00002FE10BD5C1600200008024008B543E02D
:104B00004FF0FF336A464FF40031002009F0F4FD06
:104B10000446012C38D1009800F40030002833D02E
:104B20001A48007800282FD018480078042813D19C
:104B30001748407810B900201649087015480078C9
:104B400010B1012806D102E0FFF7ACFF03E0FFF748
:104B500073FF00E000BF0EE000200F4908700F490E
:104B60000870002505E008210D48FCF7C4FD681C0D
:104B7000C5B2032DF7DBFFF79FFF002301221102CF
:104B80000848006809F0D0FBBAE70000F6000020F2
:104B90005C160020FC000020CD040020C50400208D
:104BA000000802403000002010B53548007820B1E0
:104BB000012821D0022860D153E00F22042131487E
:104BC000FDF7E6FAFCF796FE2F49086000202F4912
:104BD00008702F49087020212E48FCF78CFD042115
:104BE0002D48FCF78AFD40212A48FCF786FD01216B
:104BF0002A48FCF780FD40E02448007840BBFCF7E1
:104C000079FE21490968401AC8280CD14FF49060F8
:104C1000FEF7E6F82248B0F8BC06143801B2204886
:104C2000A0F8BC161CE0FCF765FE17490968401A9D
:104C3000B0F5FA6F14D91B480078022804DA194835
:104C40000078401C1749087001201049087007E0DF
:104C50000121154880F84610FCF74CFE0A4908600F
:104C60000BE00B48007820B907F064FD0849087094
:104C700002E000200249087000BF00BF10BD000024
:104C80006208002030440020A8080020AC08002062
:104C9000AD0800200010024000080240001402404D
:104CA000401C0020AF0800203E44002010B53848CA
:104CB000007820B1012821D0022867D15AE00F22C4
:104CC00004213448FDF764FAFCF714FE3249086009
:104CD0000020324908703249087020213148FCF721
:104CE0000AFD04213048FCF708FD40212D48FCF75F
:104CF00004FD01212D48FCF7FEFC47E02748007821
:104D000090BBFCF7F7FD24490968401AC8280CD16C
:104D10004FF49060FEF764F82548B0F8BC060A38F6
:104D200001B22348A0F8BC1623E0FCF7E3FD1A49C2
:104D30000968401A40F2DC5188421AD91C48B0F880
:104D40001C0A00F5487001B21948A0F81C1A19484D
:104D50000078022804DA17480078401C15490870CA
:104D600001200E49087004E0FFE7FCF7C3FD0A4983
:104D700008600BE00A48007820B907F0DBFC08491E
:104D8000087002E000200249087000BF00BF10BD9B
:104D9000620800202E440020A8080020AC08002053
:104DA000AD0800200010024000080240001402403C
:104DB000401C0020AF08002008B56AE04FF0FF3328
:104DC0006A463449002009F097FC0446012C60D162
:104DD000009800F0100050B12F4DB5F90830B5F92A
:104DE0000620B5F90410B5F9020006F00FFC009892
:104DF00000F40000E0B1284BB3F90E20B3F90C1019
:104E0000B3F90A0006F0DAFB244DB5F90830B5F91C
:104E10000620B5F90410B5F9020006F051FC2B4646
:104E2000B3F90E20B3F90C10B3F90A0006F020FC18
:104E3000009800F4007038B3174DB5F90830B5F993
:104E40000620B5F90410B5F9020006F0DFFB2B4689
:104E5000B3F90E20B3F90C10B3F90A0006F0AEFB5B
:104E60000E4DB5F90830B5F90620B5F90410B5F9BD
:104E7000020006F025FC2B46B3F90E20B3F90C1006
:104E8000B3F90A0006F0F4FB002008F061FA0449C7
:104E9000086093E7D0138000681200207A12002087
:104EA000E400002010B500F001F810BD00201B49FF
:104EB00008701B4890ED000AF7EE000A20EE200A69
:104EC0001848D0ED050AB6EE001A10EEC10A1648D1
:104ED00080ED020A124890ED010AF7EE000A20EE7A
:104EE000200A1048D0ED060AB6EE001A10EEC10AEC
:104EF0000D4880ED010A0A4890ED020AF7EE000A1B
:104F000020EE200A0748D0ED070AB7EE001A10EE8F
:104F1000C10A054880ED030A704700009500002093
:104F2000C03A0020183A00201412002010B591B1A8
:104F3000B7EE000A384C84ED050A9FED380A384C6C
:104F400084ED000A9FED350A84ED010A9FED330AD6
:104F500084ED020A25E090B1BFEE000A2E4C84EDEC
:104F6000050A9FED2E0A2E4C84ED000A9FED2B0AB8
:104F700084ED010A9FED290A84ED020A11E09FEDFC
:104F8000270A254C84ED050A9FED240A244C84ED64
:104F9000000A9FED220A84ED010A9FED200A84EDAC
:104FA000020A93B1B7EE000A1B4C84ED060A9FED8E
:104FB0001B0A1B4C84ED000A9FED180A84ED010AC0
:104FC0009FED160A84ED020A25E092B1BFEE000AB9
:104FD000114C84ED060A9FED110A114C84ED000A74
:104FE0009FED0E0A84ED010A9FED0C0A84ED020A82
:104FF00011E09FED0A0A084C84ED060A9FED070AAE
:10500000074C84ED000A9FED050A84ED010A9FED2F
:10501000030A84ED020A10BD183A002000000000C7
:10502000C03A00201E4800881E490988084400B282
:105030001D4908801A4840881A490989401A00B257
:105040001A4908801A48808E098808441649098838
:10505000401A00B2164988850846C08E134909884F
:10506000084411490988084401B21148C185008FDC
:105070000E490988401A0C490988084401B20C48B5
:105080000186408F09490988401A07490988401A52
:1050900001B20748418601200649087070470000A8
:1050A000341C0020903A0020960000209800002038
:1050B000141200209A00002010B5FFF7F7FE10BD73
:1050C0000548007818B1054890F8680008B100203C
:1050D00070470120FCE70000F60000204413002088
:1050E0000FB49DF81400C0F34010E8B99DF8140007
:1050F000C0F30010C0B99DF8140000F0010098B191
:105100009DF8140000F00100404200EE100AB8EED5
:10511000C00ADFED460A20EE200AF6EE000A20EE75
:10512000200A434880ED060A9DF81400C0F34010A1
:10513000E0B99DF81400C0F30010B8B99DF8140050
:10514000C0F3400090B19DF81400C0F3400000EEA1
:10515000100AB8EE400ADFED350A20EE200AF6EE1E
:10516000000A20EE200A324880ED060A9DF814005D
:10517000C0F34010E8B99DF81400C0F30010C0B9A6
:105180009DF81400C0F3800098B19DF81400C0F39E
:105190008000404200EE100AB8EEC00ADFED230A9C
:1051A00020EE200AF6EE000A20EE200A204880EDCC
:1051B000050A9DF81400C0F34010E0B99DF81400F2
:1051C000C0F30010B8B99DF81400C0F3C00090B14E
:1051D0009DF81400C0F3C00000EE100AB8EE400ABB
:1051E000DFED120A20EE200AF6EE000A20EE200A79
:1051F0000F4880ED050ABDF90C0000EE100AB8EE6C
:10520000C00ADFED0C0A80EE201A9FED0B0A21EE9A
:10521000000AF7EE000A20EE200AF6EE000A20EE61
:10522000200A034880ED070A04B0704700007A4462
:10523000183A0020000025440000164470B50546C9
:105240000E46144600EE105AB8EEC00ADFED380ADA
:1052500080EE201A9FED370A21EE000AF7EE000AD1
:1052600020EE200A344880ED000A704200EE100A59
:10527000F8EEC00A9FED2E1A80EE810ADFED2D0AAE
:1052800020EE200AF7EE000A20EE200A2A4880EDE0
:10529000010A00EE104AB8EEC00ADFED250AB4EEAE
:1052A000600AF1EE10FA0ED000EE104AB8EEC00A15
:1052B000DFED220AB4EE600AF1EE10FA03D0FCF73B
:1052C00019FB1F490860FCF715FB1D490968401AC6
:1052D000B0F5FA6F13D900EE104AF8EEC00A9FED50
:1052E000141A80EE810ADFED170A20EE200AF7EE8D
:1052F000000A20EE200A104880ED020A16E000EEB7
:10530000104AB8EEC00A9FED0A1AC0EE010A9FEDDE
:105310000D0A20EE800AF7EE000A20EE200AF6EED3
:10532000000A20EE200A044880ED020A70BD000049
:105330000000254400404E45C03A0020000025C42E
:10534000680800200000F04310B548211D48FAF716
:10535000BEFF4FF47A711C4805F05EFE1B48D0ED8D
:10536000021AB0EE611AD0ED011AF0EE610AD0ED2A
:10537000001AB0EE610A002332224FF4F071144893
:10538000FDF78AFD002419E01049D1ED051AB0EEB1
:10539000611AD1ED041AF0EE610AD1ED031AB0EEF4
:1053A000610A04EB04110B4A02EB810000234FF465
:1053B000FA7242F21071FDF76FFD641C042CE3DBFE
:1053C00010BD0000141200205C1200209C00002080
:1053D000E43B0020D43A00209FED060A064880ED09
:1053E000020A9FED040A80ED010A9FED020A80ED9A
:1053F000030A7047000000001412002008B537E1CE
:105400004FF0FF336A464FF40051002009F074F961
:105410000546012DF3D1009800F400500028EED08D
:105420009448D0ED021AB0EE611AD0ED011AF0EEF8
:10543000610AD0ED001AB0EE610A012332224FF466
:105440007A718D48FDF728FD002419E08949D1EDD6
:10545000051AB0EE611AD1ED041AF0EE610AD1ED31
:10546000031AB0EE610A04EB0411844A02EB8100D6
:1054700001234FF4FA6244F62061FDF70DFD641C30
:10548000042CE3DB7E48007800287DD07C4800783F
:105490000F2837D2DFE800F036080A0B0916191C6E
:1054A0002D301310330C0D0000BF00BF00BF00BF34
:1054B00000BFFFF7F7FC28E0FFF7F8FC25E0FFF757
:1054C000F5FC22E0FFF7F8FD1FE0FFF7ABFD1CE065
:1054D0006C480078012802D1FFF7E8FC08E0694831
:1054E0000078022802D1FFF7E1FC01E0FFF7DEFCC3
:1054F0000BE0FFF7DBFC08E0FFF7D8FC05E0FFF767
:105500006BFF02E0FFF768FF00BF00BF5C48007858
:10551000062802D000205C4908705C48D0ED031AD0
:10552000B0EE611AD0ED021AF0EE610AD0ED011A68
:10553000B0EE610A1C3004F01BFB5348007888BBB6
:1055400000242CE051491C3131F9141001EE101ADD
:10555000B8EEC11AF0EE410A4C49143131F9141079
:1055600001EE101AB8EEC11AB0EE410A04EB0411B4
:10557000424A02EB810004F07BFEBDEEC00A10EE51
:10558000100A01B2414800E067E03C3020F81410F6
:10559000183830F81410103020F81410641C042C43
:1055A000D0DB4CE0FFE738480078012847D10024E1
:1055B00043E036482C3030F9140001EE100AB8EE02
:1055C000C11AF0EE410A3148243030F9140001EEDE
:1055D000100AB8EEC11AB0EE410A274804F048FE9E
:1055E000BDEEC00A10EE100A01B228481C3020F8A7
:1055F0001410014631F9141001EE101AB8EEC11A58
:10560000F0EE410AA0F1080131F9141001EE101A70
:10561000B8EEC11AB0EE410A04EB0411174A02EBCE
:10562000810004F025FEBDEEC00A10EE100A01B2A2
:1056300016483C3020F81410641C042CB9DBFFF72A
:105640003FFD18B911480021C163016410480F499A
:10565000CA6B0260096C416003E00D4800210160E3
:1056600041600023012210210A48006808F05CFE16
:10567000C6E600009C000020E43B0020D43A002055
:10568000F6000020010100209A00002014120020E2
:105690006A1200203000002000B50F2204210248C9
:1056A000FCF776FD00BD00003844002030B5B3B0F3
:1056B000A948007818B9FCF71FFEA7490870FCF745
:1056C00059FEA64800780F2822D2DFE800F0210812
:1056D0002121211A1B140E11211721211E0004F073
:1056E000ADFC00209E49087016E0FFF7DFFA13E0DA
:1056F000FFF75AFA10E006F031FE0DE000F03CF939
:105700000AE000BF01F020FF06E0FFF7C5FF00BF81
:1057100000209349087000BF00BFFCF7A1FD0024E2
:105720007AE004EBC40000EB40008E4911F8300031
:1057300003283BDD04EBC40000EB40000A4602EB0B
:10574000C00000F11001C8226846FAF7A7FD04EB7B
:10575000C40000EB4000834901EBC0050FCDFEF70C
:10576000B0FF18B304EBC40000EB40007D4901EB2F
:10577000C000B0F9BA1004EBC40000EB4000794A55
:1057800002EBC000B0F9BC00014404EBC40000EB24
:10579000400002EBC000B0F9D400014404EBC400A7
:1057A00000EB400002EBC000816133E004EBC40079
:1057B00000EB40006B4A02EBC00000F11001C82270
:1057C0006846FAF76BFD04EBC40000EB4000654946
:1057D00001EBC0050FCDFEF774FFD8B904EBC40090
:1057E00000EB40005F4901EBC000B0F8BC1004EBD7
:1057F000C40000EB40005B4A02EBC000B0F8D400EC
:10580000084401B204EBC40000EB400002EBC0000E
:10581000A0F8B210601CC4B2102C82DB5248B0F960
:1058200000005249B1F9001001444E48D0F8B007C9
:10583000411A4C48C0F8B0174B48B0F900004B492A
:10584000B1F9001001444748D0F8880801444548A0
:10585000C0F888184448B0F904004449B1F9101060
:1058600001444048D0F8780301443E48C0F878131A
:105870003D48B0F904003D49B1F9101001443948E0
:10588000D0F8500401443748C0F850143648B0F9F5
:1058900006003649B1F91810411A3248D0F8380AD2
:1058A00001443048C0F8381A2F48B0F908002F4991
:1058B000B1F9201001442B48D0F8100B411A2948A7
:1058C000C0F8101B284840892849098D0144254803
:1058D000B0F8820C401A01B22248A0F8821CD0F81D
:1058E00060092349B1F9001001441E48C0F860194D
:1058F000D0F8B017B0F95208A0F2FD20814203DDC4
:105900001A4800881B4908801648D0F8B017B0F92B
:105910005208A0F2FD2081420BDA1248B0F9521869
:10592000A1F2FD21C0F8B0171248B0F900000F49EC
:1059300008800C48D0F88818B0F92A0900F2FD2038
:10594000814206DD0748B0F92A1901F2FD21C0F8AD
:10595000881833B030BD0000B0080020F6000020E9
:1059600062080020401C0020341C0020903A0020D7
:1059700054080020BC08002010B53048007820B141
:10598000012821D0022857D14AE00F2204212C48B7
:10599000FCF7FEFBFBF7AEFF2A49086000202A490E
:1059A00008702A49087020212948FBF7A4FE042129
:1059B0002848FBF7A2FE40212548FBF79EFE012167
:1059C0002548FBF798FE37E01F48007818BBFBF727
:1059D00091FF1C490968401AC82802D11F48FDF7E9
:1059E000FFF9FBF787FF17490968401AB0F5FA6F0E
:1059F00004D140F2DC50FDF7F3F910E0FBF77AFF39
:105A000010490968401A40F6AC51884207D301207A
:105A10000D49087003E0FBF76DFF0A4908600BE0D1
:105A20000A48007820B906F085FE0849087002E0AF
:105A300000200249087000BF00BF10BD62080020AE
:105A400036440020A8080020AC080020AD08002043
:105A500000100240000802400014024024FAFFFF38
:105A600010B538210B48FAF732FC002003F056FE3F
:105A70000020084988700120C8700871002006497C
:105A800008706421054805F0C7FAFBF733FF0449A5
:105A9000086010BDC0120020D8010020F8120020BC
:105AA000BC01002008B50AE04FF0FF336A464FF40E
:105AB0000041002008F020FE012800D100BFF3E7DC
:105AC0000121034880F8011180F80211704700009D
:105AD000B02D002010B51E2230493148FAF7DEFB08
